:020000040800F2
:10000000C85100207D0200087B2300084920000819
:1000100079230008010800083529000800000000C5
:10002000000000000000000000000000C101000806
:10003000E508000800000000150200083D24000843
:10004000970200089702000897020008970200082C
:10005000970200089702000897020008970200081C
:10006000970200089702000897020008970200080C
:1000700097020008970200089702000897020008FC
:10008000970200089702000897020008110800086C
:100090000508000897020008970200089702000868
:1000A00097020008970200089702000897020008CC
:1000B00097020008970200089702000897020008BC
:1000C00097020008970200089702000897020008AC
:1000D00097020008112900089702000897020008FB
:1000E000970200089702000897020008970200088C
:1000F000970200089702000897020008970200087C
:10010000970200089702000897020008970200086B
:10011000970200089702000897020008970200085B
:1001200097020008970200083508000897020008A7
:1001300097020008970200089702000829080008A3
:10014000970200081D08000897020008970200089F
:100150009702000897020008970200082929000862
:10016000970200089702000897020008970200080B
:10017000970200089702000897020008000000009C
:1001800097020008970200089702000897020008EB
:1001900097020008970200089702000897020008DB
:1001A000000000000000000097020008DFF80CD0FB
:1001B00000F014FB00480047D52B0008C851002070
:1001C0002B4B19680868B0E8F04F80F30988BFF33B
:1001D0006F8F4FF0000080F311887047000000001F
:1001E00006480068006880F3088862B661B6BFF30D
:1001F0004F8FBFF36F8F00DF00BF00BF08ED00E03F
:10020000DFF80C00016841F470010160704700BF25
:1002100088ED00E0EFF30980BFF36F8F144B1A688D
:100220001EF0100F08BF20ED108A20E9F04F10607B
:1002300008B44FF0500080F31188BFF34F8FBFF325
:100240006F8F03F0EDFB4FF0000080F3118808BCC6
:1002500019680868B0E8F04F1EF0100F08BFB0EC46
:10026000108A80F30988BFF36F8F704700BF00BF0B
:1002700050000020EFF305807047000006488047DB
:1002800006480047FEE7FEE7FEE7FEE7FEE7FEE77B
:10029000FEE7FEE7FEE7FEE7F5240008AD010008F3
:1002A0002DE9F05F0546002092469B4688460646AB
:1002B000814640241BE0284641464746224600F03E
:1002C0000DFA53465A46C01A914110D311461846AA
:1002D000224600F0F4F92D1A67EB01084F4622463A
:1002E0000120002100F0EBF917EB00094E41201E20
:1002F000A4F10104DFDC484631462A464346BDE806
:10030000F09F40EA01039B0703D009E008C9121FD0
:1003100008C0042AFAD203E011F8013B00F8013BBF
:10032000521EF9D27047D2B201E000F8012B491EEB
:10033000FBD270470022F6E710B513460A46044682
:100340001946FFF7F0FF204610BD2DE9FE4F80460D
:1003500081EA0300C00F0C46009021F0004123F019
:100360000045B8EB0200A94105D24046214690461F
:100370001C460B46024623F00040104347D0270D91
:10038000C7F30A00C3F30A510290401A01904028B3
:100390006BDAC3F3130040F4801B0098924620B13F
:1003A0000023D2EB030A63EB0B0B01985946C0F113
:1003B0004002504600F083F906460D465046594625
:1003C000019A00F09BF910EB08006141002487EAD4
:1003D000115284EAE7731A4340D0009A62B3019A3B
:1003E000012A4FEA075215DC001B61EB02014FF0B6
:1003F000004202EA0752CDE90042001C41F580119B
:1004000032462B4600F09BF903B0BDE8F08F404622
:100410002146F9E7001B61EB0201001C41F5801346
:1004200000185B412018A2F5001747EB030140EAD2
:10043000D570B6196D4111E06D084FEA360645EAF0
:10044000C0754FEA0752001B61EB0201001C41F529
:10045000801149084FEA30000019514132462B46BD
:1004600003B0BDE8F04F00F05BB9009801224000F6
:100470000023D0EB020263EBE073009821464FEAC1
:10048000E074B8EB000061EB0401E9E783F000439E
:100490005BE781F0004158E72DE9FE4F81EA030454
:1004A00004F0004421F0004100944FF0000B23F0D1
:1004B000004350EA01045ED052EA03045BD0C3F368
:1004C0000A54C1F30A552C44A4F2F3340194A0FB5E
:1004D0000254C1F3130141F48011C3F3130343F435
:1004E000801301FB024400FB034E840A970A44EA8E
:1004F000815447EA8357A4FB076802958D0A05FBE0
:1005000007854FEA932C04FB0C542705029D4FEA04
:10051000065847EA1637B5EB08056EEB070C870E51
:10052000920E47EA811742EA8312A7FB0201B6EB5B
:100530000B0164EB00042B0D43EA0C335E1844EB13
:100540001C50DA465146E7FB0201C5F313044FEA9B
:100550000B3343EA14534FEA0432019C43EA060387
:10056000A4F10C040294009CCDE900B400F0E7F87B
:1005700003B0BDE8F08F00200146F9E72DE9F04D0A
:1005800081EA030404F0004B21F0004514464FF0CB
:10059000000A23F0004150EA050220D054EA01028B
:1005A0001DD0C5F30A570246C5F31303C1F3130068
:1005B000C1F30A5640F4801543F48013A7EB0608F4
:1005C000101BD64608F2FD3873EB050002D308F184
:1005D000010801E092185B41B8F1000F03DA002036
:1005E0000146BDE8F08D00204FF480110646844698
:1005F0000EE0171B73EB050705D3121B63EB050316
:1006000006434CEA010C49084FEA300092185B415E
:1006100050EA0107EDD152EA030012D082EA040049
:1006200083EA0501084305D0101BAB4106D2012225
:10063000002306E000224FF0004302E06FF00102C9
:1006400053101AEB06004CEB085110EB0A0041EB7B
:100650000B01BDE8F04D00F063B870B5C1F30A526C
:1006600001F000450024C1F3130140F2FF3341F4CF
:1006700080119A4201DA002070BD40F233439A4261
:10068000A2F2334203DC524200F028F800E090402E
:100690002C43F1D0404270BD00F0004230F00040E9
:1006A0000AD0C10D01F56071C0F3160042EA015194
:1006B000C208400711437047002001467047202AB6
:1006C00004DB203A00FA02F1002070479140C2F1A9
:1006D000200320FA03F3194390407047202A04DBDB
:1006E000203A21FA02F00021704721FA02F3D040AB
:1006F000C2F120029140084319467047202A06DBC8
:10070000CB17203A41FA02F043EAE07306E041FADF
:1007100002F3D040C2F120029140084319467047CD
:1007200010B5141E73F1000408DA401C41F10001F9
:1007300092185B411A4301D120F0010010BD2DE950
:10074000F04D92469B4611B1B1FA81F202E0B0FA47
:1007500080F220329046FFF7B2FF04460F4640EA8F
:100760000A0041EA0B0153465A46084313D011468A
:1007700053EA010019D0C8F140025046FFF7AEFF1E
:1007800005460E46504659464246FFF798FF084335
:1007900005D0012004E020463946BDE8F08D002058
:1007A000054346EAE0762C4337430A986305E40A9A
:1007B000A0EB08000022FD0A44EA47540A3002D5A3
:1007C00000200146E9E7010510196941DDE9084506
:1007D00000196941BDE8F04DA2E70000064C074D45
:1007E00006E0E06840F0010394E807009847103401
:1007F000AC42F6D3FFF7DEFCB4410008D441000858
:10080000FEE70000014800F008BA0000A001002047
:10081000014800F002BA0000A0010020014800F0E9
:10082000FCB90000C8010020014800F0F6B9000042
:10083000C8010020014800F083BC0000C80200206D
:1008400001681823CAB2103AB2FBF3F2054B6FF3FA
:100850000901032A9B5CC36500D9091D816508460F
:10086000704700007441000810B5014600208B69F4
:100870008A6A4FF0C07453B1B3F5005F15D072B1FE
:10088000012A0CD0022A0AD0032A09D104E01AB1A5
:10089000012A06D0022A03D1C96AC90100D5012064
:1008A00010BDC96AA142FAD010BD002AF7D0012AB2
:1008B000F2D0022AF3D0032AF3D010BD30B5046879
:1008C000256825F480252560046863608368402BD3
:1008D000036803D099600068C26030BD9A60006808
:1008E000C16030BD704790F82020012A09D090F8EF
:1008F0002020022A05D0416A41F480214162012072
:100900007047006842690A43426100207047F0B5B1
:1009100090F82040012C07D090F82040022C03D002
:10092000416A41F4802153E00468A5686D0105D453
:10093000A5682D0102D4A568ED0046D5A46801255F
:10094000C4F30164A5401D608D684FF4C0739DB170
:10095000CE6835434E6845EAC605066803EB0417C2
:10096000F5514FF4C275076805EB04150E697E5109
:10097000097D012905D009E00E88CD6845EA465574
:10098000EBE701684E5946F480764E511179D2F862
:1009900005504FF4C67641EA0521056806EB0416BA
:1009A000A9511178D2F801204FF4C47541EA02210F
:1009B000026805EB04155151006803EB041142581D
:1009C00042F0010242500020F0BD416A41F40011A2
:1009D00041620120F0BD000010B590F82020012AEE
:1009E00009D090F82020022A05D0416A41F48021E4
:1009F0004162012010BD3A48D0F8002242F00102C5
:100A0000C0F80022D0F8002222F47C52C0F8002264
:100A1000D0F800224B6A42EA0322C0F800220B7D84
:100A200001229A40D0F81C329343C0F81C32CB69A3
:100A3000B3B9D0F80C329343C0F80C328C894B68B0
:100A400064F31F434C6900EBC404C4F840320C89C2
:100A50000B6864F31F434C6900EBC404C4F84432D0
:100A6000CB69012B16D1D0F80C321343C0F80C32ED
:100A70000C884B6864F31F434C6900EBC404C4F852
:100A800040320C89CB6864F31F434C6900EBC4040B
:100A9000C4F844328B69002BD0F804320ED01343D3
:100AA000C0F804320B69002BD0F8143208D013437D
:100AB000C0F81432096A012904D008E09343EFE733
:100AC0009343F5E7D0F81C121143C0F81C12D0F87C
:100AD000001221F00101C0F80012002010BD00003A
:100AE000006400400068416941F40F414161704772
:100AF00030B590F82040012C07D090F82040022C0F
:100B000003D0416A41F4802109E011B1012909D0E3
:100B10000CE00468E46807E0416A41F400114162B6
:100B2000012030BD04682469A407F5D04FF4D874BF
:100B3000056804EB01142D5915F00405956005684E
:100B40002D5942D0ED08556005682C59C4F3400476
:100B5000D4604FF4DA74056804EB01142D5905F0E4
:100B60000F05156105682D59C5F3072595610568C1
:100B70002C59240C54614FF4DC72046802EB01120E
:100B8000A4581C700468A458240A5C700468A45813
:100B9000240C9C700468A258120EDA704FF4DE72B6
:100BA000046802EB0112A4581C710468A458240ABA
:100BB0005C710468A458240C9C710468A258120E3D
:100BC000DA7129B1012909D00DE06D0D1560BBE77F
:100BD0000068C16841F02001C16004E0006801695B
:100BE00041F020010161002030BD0146002091F854
:100BF0002020012A03D091F82020022A0CD1096874
:100C00008A68520100D501208A68120100D5401C73
:100C10008968C90000D5401C70472DE9F05F054682
:100C2000006800244669D0F804908768D0F80CB0BA
:100C3000D0F810A0D0F81880F10748D0F90714D0E8
:100C400001218160B80703D5284600F060FA0CE066
:100C5000780702D54FF4006407E0380702D54FF457
:100C6000805402E0284600F051FAF80516D52968AC
:100C70004FF480708860B80503D5284600F049FA23
:100C80000CE0780502D544F4005407E0380502D59D
:100C900044F4804402E0284600F03AFAF80316D5FE
:100CA00029684FF480308860B80303D5284600F0E7
:100CB00032FA0CE0780302D544F4004407E038032C
:100CC00002D544F4803402E0284600F023FA3007CD
:100CD00007D55FEACB6004D52968102044F400747E
:100CE000C86070074FF0080707D55FEA0B7004D59E
:100CF0002868C760284600F08BF9B00706D5286839
:100D0000C068800702D0284600F084F9700607D535
:100D10005FEACA6004D52968102044F48064086141
:100D2000B00607D55FEA0A7004D52868076128462F
:100D300000F0BCF9F00606D528680069800702D0EB
:100D4000284600F0B4F9B00308D55FEAC96005D5BC
:100D5000296810204860284600F0AAF9F00307D55A
:100D60005FEA097004D528684760284600F0D4F986
:100D7000300446D55FEA497040D5F00504D55FEAF6
:100D8000C87001D044F00104B00504D55FEA887052
:100D900001D544F00204700504D55FEA487001D51E
:100DA00044F00404300529D518F0700F26D008F05F
:100DB0007000402815D006DC102809D020280AD061
:100DC000302816D10AE050280ED0602811D10EE04C
:100DD00044F008040DE044F010040AE044F020045C
:100DE00007E044F0400404E044F0800401E044F4EF
:100DF00080742868816921F070018161296804206C
:100E00004860002C05D0686A204368622846FFF7D6
:100E100069FEBDE8F09F70B5040003D094F820008F
:100E200010B104E0012070BD204600F081F8206878
:100E3000016821F00201016000F0CCFB05460526A7
:100E400004E000F0C7FB401B0A2811D82068406866
:100E50008007F6D42068016841F00101016000F0CC
:100E6000B9FB05460BE000F0B5FB401B0A2806D98C
:100E7000606A40F40030606284F82060D2E7206845
:100E80004068C007EFD0207E0128206801683DD06F
:100E900021F080010160607E01282068016838D05F
:100EA00021F040010160A07E01282068016833D054
:100EB00021F020010160E07E0128206801682ED029
:100EC00041F010010160207F01282068016829D0CD
:100ED00021F008010160607F01282068016824D0AA
:100EE00021F004010160D4E902010843D4E90412AD
:100EF000114308436168491E08432168C861002006
:100F00006062012084F82000002070BD41F0800163
:100F1000C0E741F04001C5E741F02001CAE721F0F8
:100F20001001CFE741F00801D4E741F00401D9E70F
:100F3000F0B5324B0768DFF8C0C0186803220224FE
:100F400009252F490026401C87B0674521D118602C
:100F5000012807D1086840F000700860086800F0B8
:100F6000007005908DE85400CDE9032569462548B9
:100F700000F044FA00220521132000F0C1FB1320E9
:100F800000F0B2FB00220521142000F0B9FB142070
:100F90002EE0DFF874C067452CD10F6847F08067FA
:100FA0000F600F68012807F080670597186007D168
:100FB000086840F000700860086800F00070059054
:100FC0004FF440508DE85100CDE9032569460F48A4
:100FD00000F014FA002205213F2000F091FB3F2091
:100FE00000F082FB00220521412000F089FB412016
:100FF00000F07AFB07B0F0BD006400400C00002058
:1010000040380240000C02400068004000040240EA
:101010007047000000B587B01B4B6A460021FFF700
:1010200067FD18B18C2119A001F085FC0098A0F58E
:10103000007101390AD0A0F50071023906D0A0F57F
:101040000071033902D0B0F5017F14D10E49401E62
:10105000491EC0B20870C0EB0011124800EB8100BD
:1010600081694A1C32290849826102D801F094FD45
:1010700001E001F05FFD0C480068416941F00201A8
:10108000416107B000BD0000010000202E2E5C620F
:1010900073705C63616E5C6273705F63616E2E631C
:1010A0000000000094000020A0010020704770475D
:1010B0007047000070B5044690F82000012804D065
:1010C000606A40F40020606218E0022084F820008A
:1010D0002068016821F00101016000F07BFA0546FB
:1010E0000EE000BF00F076FA401B0A2808D9606ABB
:1010F00040F400306062052084F82000012070BDBB
:1011000020684068C007EDD1606270BD70477047CD
:101110007047704770477047704790F83510022944
:1011200003D08021416501207047052180F83510EA
:101130000068016821F00101016000207047000093
:101140002DE9F84304464FF00009CDF800906348BC
:101150004FF41651A56D0068B0FBF1F72E6894F8B6
:101160005C10082000FA01F131420FD021680A68B2
:1011700052070BD50A6822F004020A6094F85C104A
:101180008840A860606D40F00100606594F85C10D4
:101190004FF0010808FA01F0304208D0216849698F
:1011A000090604D5A860606D40F00200606594F8FF
:1011B0005C1004208840304208D021680968890703
:1011C00004D5A860606D40F00400606594F85C1080
:1011D00010208840304218D021680968090714D5CA
:1011E000A86020680168490304D50068000308D599
:1011F000A16C07E00168C90503D4016821F008016A
:101200000160216C09B12046884794F85C102020C9
:101210008840304231D021680968C9062DD5A860C0
:1012200094F8350005282068016806D0490347D5A1
:10123000006800031DD4616C1CE021F01601016000
:101240002068416921F080014161206C08B9A06CDF
:1012500020B12068016821F00801016094F85C1059
:101260003F208840A86084F8349084F83580216D50
:101270001FE0E16B09B120468847606D00282BD044
:10128000606DC00714D0052084F83500206801681F
:1012900021F0010101600098401C0090B84203D881
:1012A00020680068C007F6D184F8349084F835804F
:1012B000E16C002910D001B02046BDE8F04308479A
:1012C0000168C905D5D4016821F01001016084F8D6
:1012D000349084F83580CCE7BDE8F88328000020FE
:1012E0002DE9F041044600F075F906465CB1002591
:1012F00084F83450022084F835002068016821F019
:10130000010101600DE00120BDE8F08100F062F90B
:10131000801B052805D920206065032084F835004E
:10132000F2E720680068C007F0D122681168204801
:101330000140D4E901031843D4E903363343184389
:1013400063691843A3691843E3691843236A184380
:101350000843616A042903D1D4E90B1319430843F4
:10136000106020684069666A20F0070130460E432D
:10137000012704280CD1A06A0643E06A40B1204648
:10138000FFF772FA20B14020606584F83570BAE743
:10139000206846612046FFF753FA94F85C203F210D
:1013A00091408160656584F835700020ACE70000ED
:1013B0003F8010F070B5044690F8340000250128F5
:1013C0000CD0012084F8340094F835600020012E00
:1013D00006D084F834000225284670BD022070BD76
:1013E000022684F8356060652046FFF767FA2068BA
:1013F000016841F001010160EEE700002DE9F84FBE
:10140000DFF890B100224FF001084FF0030A4FF0CF
:101410000F090BF1040E00BF0B6808FA02F4234019
:10142000A3426ED14D68022D01D0122D0ED1D508E8
:1014300000EB850CDCF820505607F70E09FA07F68A
:10144000B5430E69BE402E43CCF8206006685500B7
:101450000F790AFA05FC07F0030726EA0C06AF40ED
:10146000374307604E68012E05D0022E03D0112E9F
:1014700001D0122E0ED18768CE6827EA0C07AE4045
:101480003E4386604668A6430C79C4F3001494403A
:1014900034434460C4688E6824EA0C04AE4026439A
:1014A000C6604C68E4006FD53B4C256845F4804528
:1014B0002560246822F0030504F480440094374C2E
:1014C0002E19D6F8084895072F0F09FA07F5AC43EF
:1014D000334DA84201D100252EE0324DA84201D162
:1014E000012529E0304DA84201D1022524E02F4DED
:1014F000A84201D103251FE02D4DA84202D10425A9
:101500001AE041E02B4DA84201D1052514E02A4DF7
:10151000A84201D106250FE0284DA84201D1072598
:101520000AE0274DA84201D1082505E0254DA84233
:1015300001D1092500E00A25BD402543C6F8085819
:10154000DBF800405D464E689C43F60300D51C4323
:101550002C60DEF8004075464E689C43B60300D50B
:101560001C432C600B4D08352C684E689C43F602DA
:1015700000D51C432C60074D0C352C684E689C43ED
:10158000B60200D51C432C60521C102AFFF444AF55
:10159000BDE8F88F003C0140443802400030014073
:1015A000000002400004024000080240000C02401B
:1015B000001002400014024000180240001C0240CB
:1015C00000200240002402400AB1816170470904F2
:1015D000FBE7000001488068704700001C00002005
:1015E0000248816802781144816070471C00002025
:1015F0000B4810B5016841F400710160016841F4C5
:1016000080610160016841F480710160032000F095
:1016100097F80F2000F006F800F024F8002010BD25
:10162000003C024070B50D4D04464FF47A712878A5
:10163000B1FBF0F00A490968B1FBF0F000F0BAFB29
:1016400048B9102C07D200222146501E00F058F84D
:1016500000206C6070BD012070BD00001C000020E7
:10166000280000201F4808B5016841F4804101604E
:10167000006800F4804000901A48001F016841F0A3
:1016800080510160006800F080500090032000F05D
:1016900057F8002211466FF00B0000F031F80022DD
:1016A00011466FF00A0000F02BF8002211466FF08F
:1016B000090000F025F800221146501F00F020F824
:1016C00000221146101F00F01BF800220F21901E6F
:1016D00000F016F800220F21BDE80840501E00F06F
:1016E0000FB800004438024000F01F020121914071
:1016F0004009800000F1E020C0F8001170470000B0
:10170000F0B40E4B1B680C46C3F30223C3F107056C
:10171000042D00D90425191D072901D2002300E05A
:10172000DB1E012606FA05F1491E214099409E4024
:10173000761E16403143F0BC00F020BE0CED00E0F8
:10174000064900F0070208684FF6FF03184040EA18
:101750000220034A10430860704700000CED00E0CF
:101760000000FA052DE9F8431748016841F080515F
:1017700001600068154F00F08050012600903E6423
:10178000FFF728FF05464FF47A78114C05E000BFBB
:10179000FFF720FF401B40450DD86068C003F7D518
:1017A0007E64FFF717FF0546464607E0FFF712FF86
:1017B000401BB04202D90320BDE8F8836068800373
:1017C000F4D50020F8E700004038024000000E4247
:1017D000007000402DE9F0470E46050065D0DFF8A7
:1017E0001481D8F80000F7B200F00F00B04207D221
:1017F00088F80070D8F8000000F00F00B04254D113
:1018000028683D4C810712D5400703D5206840F475
:10181000E05020602878000703D5206840F460403D
:1018200020602068A96820F0F00008432060287834
:10183000C0072DD0304968680839012812D0022825
:1018400013D0032811D00968890700292DDA2168EF
:1018500021F0030101432160FFF7BCFE814641F204
:10186000883A0EE009688903EFE709688901ECE727
:10187000FFF7B0FEA0EB0901514502D90320BDE8F6
:10188000F0872068696800F00C00B0EB810FEFD1A1
:10189000D8F80010404601F00F01B14207D9077097
:1018A000006800F00F00B04201D00120E7E728787F
:1018B000400705D52068E96820F4E050084320601F
:1018C0002878000706D52068296920F4604040EA9E
:1018D000C100206000F03CF82168084AC1F3031100
:1018E000515CC840064908600F20FFF79BFE0020AE
:1018F000C5E70000003C0240083802407C41000877
:1019000028000020014800687047000028000020DF
:101910000448054900680968044AC1F38221515C02
:10192000C840704728000020083802408C41000859
:101930000448054900680968044AC1F34231515C12
:10194000C840704728000020083802408C41000839
:10195000154810B5006810F00C02144813D0144953
:10196000042A0FD0082A0ED10F4C241F22682368A6
:1019700002F03F025B0207D52068C0F38810A0FB8D
:10198000010106E0084610BD2168C1F38811A1FBE2
:1019900000010023FEF784FC2168C1F30141491CCA
:1019A0004900B0FBF1F010BD083802400024F400FB
:1019B000001BB7002DE9F84F050076D02878DFF836
:1019C000F8B2BE4CC00749D0DBF800105846C1F34E
:1019D0008101012908D00068C0F3810002280AD1E2
:1019E000201D0068400206D52068800336D568684F
:1019F0000028E2D032E06868B0F5803F10D0B0F542
:101A0000A02F206810D020F480302060206820F4BF
:101A1000802020606868A0B1FFF7DCFD06460CE07E
:101A2000206840F48030F4E740F480202060F7E73D
:101A3000FFF7D0FD801B642873D820688003F7D59A
:101A40000CE0FFF7C7FD064605E000BFFFF7C2FD4B
:101A5000801B6428F0D820688003F7D42878DFF84A
:101A6000608280074FF000093ED5DBF80010584631
:101A700011F00C0F09D00068C0F3810002280BD1CF
:101A80008D48001F0068400206D42068800715D5E5
:101A9000E868012809D111E0E868B8B10120C8F868
:101AA0000000FFF797FD064605E002E1FFF792FD13
:101AB000801B0228C0D820688007F7D520682969D4
:101AC00020F0F80040EAC10020600DE0C8F8009066
:101AD000FFF780FD064604E0FFF77CFD801B02282F
:101AE0001FD820688007F7D42878000722D5724EC7
:101AF000744869696C3671B101210160FFF76AFDB4
:101B0000074604E0FFF766FDC01B022809D83068CD
:101B10008007F7D50EE0C0F80090FFF75BFD0746A1
:101B200005E083E0FFF756FDC01B02287ED8306831
:101B30008007F7D42878400768D5DFF87CA1002714
:101B40000AF1380ADAF80000C0000BD4DAF8001005
:101B500041F08051CAF80010DAF80000012700F0C7
:101B600080500090584E3068C00510D4306840F462
:101B700080703060FFF72EFD009005E0FFF72AFD32
:101B80000099401A022851D83068C005F6D54A4E4F
:101B9000A868683601280FD00528306810D020F0DA
:101BA00001003060306820F004003060A868B8B1EF
:101BB000FFF710FD00900FE0306840F00100F4E7FF
:101BC00040F004003060F7E7FFF704FD0099411A88
:101BD00041F28830814264D830688007F4D50EE045
:101BE000FFF7F8FC009007E0FFF7F4FC0099411ABA
:101BF00041F28830814254D830688007F4D42FB144
:101C0000DAF8001021F08051CAF80010A869C0B3BA
:101C1000DBF80010C1F3810102294AD002284846AE
:101C200007D0C8F86000FFF7D5FC00E039E00546B2
:101C30003AE04746C8F86000FFF7CCFC064604E0EF
:101C4000FFF7C8FC801B02282BD820688001F7D43E
:101C5000D5E907010843A96A1C4A490802EB01417A
:101C60006A6A41EA8211084395F82C1040EA016142
:101C70001148001F016001203866FFF7ABFC0546E4
:101C800005E014E0FFF7A6FC401B022809D82068F5
:101C90008001F7D50BE000BFFFF79CFC401B02283A
:101CA00002D90320BDE8F88F20688001F4D4002019
:101CB000F8E70120F6E7000008380240003802404B
:101CC00000004742800E4742007000400000FFFFC6
:101CD00070B5040005D00025A56294F8510010B13C
:101CE00006E0012070BD84F85050204600F030F826
:101CF000022084F851002068016821F04001016051
:101D0000D4E901010843D4E903121143084361698E
:101D10000843218B01F400710843E1690843216AFB
:101D20000843A16A084321680860A069042101EA08
:101D30001040616A0843216848602068C16921F445
:101D40000061C1616565012084F85100002070BD0B
:101D500000B500680E4987B0884217D10D480021B0
:101D6000026842F480120260006800F4801005905E
:101D70004FF4607000900220CDE901010320039030
:101D80000520049069460448FFF738FB07B000BD02
:101D90000050014044380240001402404FF0E0215E
:101DA0000428086903D020F004000861704740F05F
:101DB0000400FAE710B5401EB0F1807F01D3012086
:101DC00010BD4FF0E02460610F21601700F0D6FADB
:101DD0000020A06107202061002010BD7047000096
:101DE00070B5026804461068D168536910F00F0F8F
:101DF00050D003F0010501F4907635435DD0C20761
:101E000005D0CA0503D5E26B42F00102E263420746
:101E100005D5DA0703D0E26B42F00202E2638207E3
:101E200005D5DA0703D0E26B42F00402E263020751
:101E300005D5DA0703D0E26B42F00802E263E26BF9
:101E4000002A33D0800604D5880602D5204600F04B
:101E500091FB20684069E16BC0F38010090700D452
:101E600028B3204600F078FB2068416949061AD55E
:101E7000416921F040014161606BA0B11B490165DE
:101E8000606BFFF74AF9002810D0606B016DBDE868
:101E900070400847830610D58B060ED52046BDE856
:101EA000704000F067BB2046FFF798FF70BD2046EA
:101EB000FFF794FF0020E06370BD030606D50B0614
:101EC00004D52046BDE8704000F0F0BC4006F3D5D4
:101ED0004806F1D5D168204621F04001D16020218B
:101EE00084F8391000F0AFF870BD000049250008F3
:101EF00070B5040004D094F83900002510B106E054
:101F0000012070BD84F83850204600F023F82420CA
:101F100084F839002068C16821F40051C16020466E
:101F200000F06EFB2068016921F490410161206896
:101F3000416921F02A0141612068C16841F40051E2
:101F4000C160E563202084F8390084F83A0000205D
:101F500070BD0000F0B506462F4F046800252F49DC
:101F600002200122032387B0BC4233D10C6844F025
:101F700010040C60096801AC01F010010591C0214A
:101F8000009184E80D000720049069462448FFF77B
:101F900035FA254C234820604FF00060C4E9010564
:101FA0004014C4E9035080106561C4E906502562FD
:101FB00020466562FFF794F918B18C211BA000F050
:101FC000BAFC7463002205212520A663FFF798FB65
:101FD00025201CE0194DAC421BD10C6844F02004B4
:101FE0000C60096801AC01F0200105914FF48441B7
:101FF000009184E80D000820049069461048FFF71E
:10200000FDF9002205214720FFF77AFB4720FFF763
:102010006BFB07B0F0BD00000010014044380240E7
:102020000004024040640240C80200202E2E2F53BC
:1020300072632F75736172742E6300000014014087
:102040000018024070477047FEE70000104810B5C6
:102050000E4901600521416000214FF4003281608A
:10206000C0E9031252014261017601224276817673
:10207000C17601774177FEF7CEFE002805D0BDE896
:102080001040502103A000F056BC10BD0064004079
:10209000A00100202E2E2F5372632F63616E2E63DA
:1020A00000000000104810B50E4901600521416094
:1020B00000214FF400328160C0E9031252014261F5
:1020C0000176012242768176C17601774177FEF76B
:1020D000A2FE002805D0BDE81040662103A000F054
:1020E0002ABC10BD00680040C80100202E2E2F53CE
:1020F00072632F63616E2E6300000000094808B50B
:10210000016841F4800101600068002200F4800051
:10211000009005213A20FFF7F3FABDE808403A2085
:10212000FFF7E2BA3038024010B58CB000200A90B8
:1021300001210AA800F094FD0C4C14220C496060A7
:102140006846FEF7DEF80021684600F0A6FD084963
:1021500020601422143105A8FEF7D3F8002105A849
:1021600000F09BFDA0600CB010BD0000100000202E
:102170004C4100082DE9F0473C4886B00024016836
:1021800041F040010160016801F0400105910168E2
:1021900041F001010160016801F001010591016850
:1021A00041F002010160016801F00201059101683E
:1021B00041F008010160016801F008010591016822
:1021C00041F080010160016801F080010591016822
:1021D00041F020010160016801F0200105910168D2
:1021E00041F0100101600068DFF8848000F0100009
:1021F000059000223C214046FFF7E6F9DFF8749095
:1022000044F24006002231464846FFF7DDF9DFF888
:1022100068A04FF40067002239465046FFF7D4F912
:102220003C2000900125CDE90154694640460394C5
:10223000FFF7E4F80096CDE9015469464846039457
:10224000FFF7DCF80420CDE9000469460B4802944E
:10225000FFF7D4F80097CDE901546946504603943E
:10226000FFF7CCF806B0BDE8F08700003038024038
:10227000001C024000140240001002400004024012
:10228000104810B50E4901604FF482714160002181
:102290008160C1604FF400720161C0E90512C16143
:1022A0000162416281620A21C162FFF711FD0028CB
:1022B00005D0BDE810404F2103A000F03CBB10BD8D
:1022C00000500140F00100202E2E2F5372632F7317
:1022D00070692E63000000000E4810B50C490160C3
:1022E0000D49416000214FF480628160C0E9031212
:1022F0000C22C0E90521C161FFF7FAFD002805D0D5
:10230000BDE810404F2105A000F015BB10BD000036
:102310000010014048020020A08601002E2E2F53FD
:1023200072632F75736172742E6300000D4810B5CF
:102330000B4901604FF4E1314160002181600C22C2
:10234000C160C0E904128161C161FFF7D1FD0028BD
:1023500005D0BDE81040622103A000F0ECBA10BD2A
:1023600000140140880200202E2E2F5372632F7517
:10237000736172742E630000FEE770470907090E4F
:10238000002806DA00F00F0000F1E02080F8141DAC
:10239000704700F1E02080F80014704710B5044643
:1023A0002DED048BB0EE418AF0EE608A0A4860643D
:1023B0000A48A064B0EE409A204600F02BFDA16CC4
:1023C000B0EE481AF0EE680AB0EE490ABDEC048B94
:1023D0002046BDE810400847152E0008252E0008AD
:1023E000012000F023FCFBE708B500F037FB0122D9
:1023F0003C210F48FFF7E8F800F026FC0E4C0D4E8C
:1024000004F11C05CDF80000B6F90410B6F902007D
:1024100000F0FCFAD4ED020A94ED000A01F02CF869
:10242000284600F0E1FF0521684600F006FCEBE7D6
:10243000001C0240960100202440002010B5FFF748
:10244000CFF8BDE8104000F01EBC000030B52748B2
:1024500093B00025016841F080510160006800F0F0
:10246000805011902248016841F4404101600068A9
:10247000022400F4404011900120009000040190DB
:102480008001CDE9064006200890B420CDE909047A
:1024900004200B906846FFF78DFA00B1FEE7FFF7C6
:1024A00061F900B1FEE70CA90F2081E831004FF47B
:1024B000A0500F904FF48050109005210CA8FFF70A
:1024C00089F900B1FEE7FFF71DFA4FF47A71B0FB0E
:1024D000F1F0FFF76FFC0420FFF760FC00220F21F2
:1024E000501EFFF70DF913B030BD00004038024018
:1024F000007000401048016841F4700101600F480D
:10250000016841F0010101600C4A002108321160AC
:1025100002680B4B1A400260031D0A4A1A600268E7
:1025200022F48022026005480C30016002495806FE
:10253000803908607047000088ED00E000380240F4
:10254000FFFFF6FE1030002410B5806B0021C1851E
:10255000C184FFF743FC10BD0168CA6822F4907281
:10256000CA6001684A6922F001024A61202180F8AC
:102570003A10704710B590F83A10222901D0022085
:1025800010BD8168B1F5805F11D001690029016833
:102590001FD0496801F07F03816A4A1C82620B7078
:1025A000C18D491E0904090CC18518D026E00269B5
:1025B000816A002A0268526805D0D2B20A80816A14
:1025C000491C8162ECE7C2F308020A80816A891C17
:1025D000F7E74A68816A4B1C83620A70E0E701688A
:1025E000CA6822F49072CA6001684A6922F0010246
:1025F0004A61202180F83A10FFF724FD002010BD29
:102600002DE9F04104460068016921F44052E16877
:10261000114301612168C86849F20C629043236943
:10262000A268E5691A4363692B431A430243CA60EF
:102630002168486920F44072A06910434861E1694B
:102640006425B1F5004F9748974A21684FF032084A
:102650003FD0914201D081427CD1FFF769F900EB74
:10266000C00101EB001061688900B0FBF1F6FFF7D3
:102670005FF900EBC00101EB001061688900B0FB5D
:10268000F1F0B0FBF5F06FF01801484306EB800164
:1026900008EB0110B0FBF5F000F0F006FFF748F989
:1026A00000EBC00101EB001061688900B0FBF1F0A4
:1026B000B0FBF5F006EB0016FFF73AF900EBC001AE
:1026C00001EB001061688900B0FBF1F7FFF730F90A
:1026D000D2E0914201D081423DD1FFF729F900EBD0
:1026E000C00101EB001061684900B0FBF1F0B0FBE4
:1026F000F5F00601FFF71CF900EBC00101EB00103B
:1027000061684900B0FBF1F7FFF712F900EBC00177
:1027100001EB001061684900B0FBF1F0B0FBF5F08F
:102720006FF01801484307EB800108EBC100B0FBD4
:10273000F5F000F0F80006EB4006FFF7F9F800EBC3
:10274000C00101EB001061684900B0FBF1F7FFF731
:10275000EFF83CE055E0FFF7DBF800EBC00101EBE0
:10276000001061684900B0FBF1F0B0FBF5F0060124
:10277000FFF7CEF800EBC00101EB001061684900E3
:10278000B0FBF1F7FFF7C4F800EBC00101EB00105C
:1027900061684900B0FBF1F0B0FBF5F06FF0180193
:1027A000484307EB800108EBC100B0FBF5F000F0F7
:1027B000F80006EB4006FFF7ABF800EBC00101EBB9
:1027C000001061684900B0FBF1F7FFF7A1F800EBDA
:1027D000C00101EB001061684900B0FBF1F0B0FBF3
:1027E000F5F06FF01801484307EB800108EBC100DA
:1027F000B0FBF5F000F00700216830448860BDE8C8
:10280000F081FFF785F800EBC00101EB0010616873
:102810008900B0FBF1F6FFF77BF800EBC00101EB9C
:10282000001061688900B0FBF1F0B0FBF5F06FF0CB
:102830001801484306EB800108EB0110B0FBF5F0EE
:1028400000F0F006FFF764F800EBC00101EB0010A8
:1028500061688900B0FBF1F0B0FBF5F006EB001603
:10286000FFF756F800EBC00101EB0010616889002A
:10287000B0FBF1F7FFF74CF800EBC00101EB0010E3
:1028800061688900B0FBF1F0B0FBF5F06FF0180162
:10289000484307EB800108EB0110B0FBF5F000F0B6
:1028A0000F00A9E7001401400010014090F8391012
:1028B000212901D0022070478168B1F5805F016A4B
:1028C0000BD04A1C0262026809785160C18C491E13
:1028D0000904090CC1840ED017E009880268C1F30D
:1028E0000801516001690029016A02D0491C016296
:1028F000ECE7891CFBE70168CA6822F08002CA6025
:102900000068C16841F04001C160002070470000CC
:1029100010B5044800F0E2FEBDE810400148FFF7A2
:102920005FBA0000480200200148FFF759BA0000D2
:1029300088020020FEE7FEE702E008C8121F08C177
:10294000002AFAD170477047002001E001C1121F30
:10295000002AFBD17047D0ED000AF4EEC00AF1EE78
:1029600010FA01DD80ED000AD0ED000AB1EE400A58
:10297000F4EEC00AF1EE10FA01D280ED000A7047C1
:1029800010B58AB0002101220446CDE906120E20BE
:102990000391164BCDE90820059100910191029118
:1029A0009C4200D1049112498C4201D1CDE904200E
:1029B00069462046FEF710F818B13A210DA0FFF73E
:1029C000BAFF2046FEF776FB18B1412109A0FFF7B8
:1029D000B2FF02212046FDF786FF18B1482105A06D
:1029E000FFF7A9FF0AB0002010BD0000A0010020E1
:1029F000C80100202E2E5C6273705C63616E5C62A5
:102A000073705F63616E2E630000000000EE100AB9
:102A1000DFED0F0A4942B8EEC01A0F4881EE200AD6
:102A20009FED0C1A20EE010A01EE101A80ED000A4B
:102A3000B8EEC11AC1EE201AF3EE0E0A61EEA00A3A
:102A4000C0ED020A0C3080ED000AC0ED020A7047AA
:102A50000000254400409C45184000202DE9F0412D
:102A600024212DED048B1A48FDF764FC194D9FEDD0
:102A70001A8ADFED1A8A9FED1A9A00244FF4FA762B
:102A800042F2107704EB440000EB041005EB8000E9
:102A9000B0EE481AF0EE680AB0EE490A33463A46FC
:102AA0000321FFF77BFC641C042CEBDBF0EE480AEF
:102AB000BDEC048B3223B2EE0C0ABDE8F0419FED71
:102AC000091A4FF4967203210748FFF767BC00000C
:102AD000244000204840002000000000CDCC4C3DA8
:102AE0000000A441000048427841002038B50F485A
:102AF00000210068026842680092C26842F0100239
:102B0000C2600A4C0A4A94F83A0020280DD13223B8
:102B1000A262A385E1632168606B091DFEF74AFC90
:102B20002068416941F04001416138BD4802002000
:102B30008401002010B5028842800B885CBA0480B2
:102B4000A21A8368B2F5805F04DD5B1EA2F5005215
:102B5000836006E012F5805F03DA5B1C02F5005229
:102B60008360C26104EB4332838ADFED0A0AD21A22
:102B700000EE102AC260B8EEC00A80EE201ABDEE48
:102B8000C10A80ED040A4A8852BA8280898849BA0B
:102B9000C18010BD610BB641098849BA01808182AC
:102BA0007047EFF30580002800D001207047000037
:102BB00010B50122D1020548FEF706FD0122BDE84D
:102BC000104091030248FEF7FFBC000000100240D5
:102BD00000140240FEF70CFDFFF738FCFFF7CAFABD
:102BE000FFF78CFAFFF778FBFFF7A0FBFFF72EFA51
:102BF000FFF758FAFFF744FBFFF7DAFFFFF776FF1E
:102C00000548FFF7BDFE0548FFF7BAFEFFF78CFA4F
:102C100000F015F8FEE70000A0010020C801002028
:102C200001460020842900D0C81C704710B500B9A7
:102C3000012000F063FE002010BD8120704710B518
:102C400000F0B2FE002010BD10B5FFF7AAFF18B1CA
:102C5000BDE8104001F026B9BDE8104001F01CB9F4
:102C600010B5012901D0002010BD03220021012050
:102C700000F08AFF040004D000231A46194600F031
:102C8000EBFF204610BD10B501F0F8F8012803D085
:102C9000BDE8104000F062BF10BD3EB504460D46D1
:102CA000B0F90800FFF7BCFF02A9CDE90001208AB6
:102CB0002B4682B2D4E9001001F0B4F8012801D00B
:102CC00000203EBD02983EBD00B580ED040A30EE06
:102CD000C00AC0ED030A014680ED070AD0ED0C0AD8
:102CE0009FED4B2AF5EEC00AF1EE10FA06D0B0EED9
:102CF000C01AB4EEE01AF1EE10FA7CDC8B6B01F135
:102D00002C000246032B02D0042B32D05FE0D1ED21
:102D1000000A01F1240060EE800AC1ED080AD1ED3D
:102D2000090A91ED011A41EE000AC1ED090AD1ED3F
:102D3000060A30EE600AD1ED020A20EE200A81ED8B
:102D40000A0A91ED100AB8EE400AFFF704FE91ED71
:102D5000080AD1ED090A104630EE200AD1ED0A0A20
:102D600030EE200A81ED0B0A91ED0F0AB8EE400A11
:102D70002BE091ED061AD1ED001AF0EE002A70EE6C
:102D8000410A60EEA10AC1ED080AD1ED011A61EE17
:102D9000801A01EE620AC1ED091A91ED051A70EE72
:102DA000A10A30EE010A91ED021A20EE010A81ED2E
:102DB0000A0A30EE800AD1ED0B0A30EE200A81EDCE
:102DC0000B0A91ED0F0AB8EE400AFFF7C4FD91ED32
:102DD000060A81ED050A91ED070A81ED060A91EDDB
:102DE0000D0AB5EEC00AF1EE10FA0DD0D1ED0B0AC6
:102DF000F0EEE00A00E004E0F4EEC00AF1EE10FAB2
:102E000002D2B0EE420A00BD91ED0B0A00BD0000F7
:102E10000000000000F1380C8CE80E0080EC030A82
:102E20007047000080EC030A9FED050A80ED080A58
:102E300080ED090A80ED0A0A80ED0B0A7047000058
:102E4000000000002DE9F041184C0F460546E668E9
:102E50002068001D00F072FC38B9206890F82C1032
:102E600001208840216981432161681C07D137B165
:102E70002168BDE8F0410E48091D00F097BC2068AC
:102E80003544B5424560216805D2A06BBDE8F041EC
:102E9000091D00F073BC606B091D00F06FFCA06A97
:102EA000854200D2A562BDE8F081000050000020FC
:102EB000044000202DE9F041054600F083FC2E4C33
:102EC000A068401CA06020682C4F10B1606940B31E
:102ED0002DE02560A068012829D1002606EB860098
:102EE00007EB800000F03CFC761C072EF6D323484D
:102EF0008C3000F035FC2148A03000F031FC1F4838
:102F0000B43000F02DFC1D48C83000F029FC1B48EF
:102F1000DC3000F025FC19488C3060631430A0636D
:102F200005E02068E96AC06A884200D82560606AC6
:102F3000401C6062E96A01202269884010432061D8
:102F400001EB810007EB8000291D00F02FFC00F051
:102F500059FC606900280CD02068E96AC06A884280
:102F600007D207494FF080500860BFF34F8FBFF37F
:102F70006F8FBDE8F081000050000020283F002046
:102F800004ED00E070B5114E114C17E000F040FD6B
:102F90003068B8B101F078F800F014FCF068C5684A
:102FA000281D00F0CBFBA068401EA0606068401E9A
:102FB000606000F027FC284600F042F860680028B6
:102FC000E4D170BD01F060F8F8E70000F03F0020A8
:102FD000500000202DE9F041856B1746044600267D
:102FE000026C82B1C7B1E068FDF78BF9E168206C33
:102FF000091AE1602268914202D26168081AE06011
:10300000022F16D017E02068A8B9606800F0B6FF5C
:103010000646002060600EE0A068FDF772F9216CA2
:10302000A0680844A0606168884204D32068A0605A
:1030300001E005B16D1E6D1CA5633046BDE8F08151
:1030400010B50446006B00F0F1FB2046BDE81040CF
:1030500000F0ECBB10484FF47051420706D0C01D81
:103060000D4920F00700411AC1F570510B4A0023A9
:103070000144C2E900030839103A21F00701116048
:103080004B600B600B1AC0E9001393604FF00040D7
:103090005360D06070470000280300203C000020EF
:1030A000074C4FF08056074DFFF76CFF2068012852
:1030B000FAD92E60BFF34F8FBFF36F8FF4E7000094
:1030C000283F002004ED00E02DE9F0479A46DDE9B5
:1030D000098481466FF00303206B03EB82021044E6
:1030E000089D20F00706700707D0502080F3118854
:1030F000BFF34F8FBFF36F8FFEE723180A5C83F88F
:1031000034200A5C12B1401C1028F6D3002784F842
:103110004370072D00D30625E562C4E91157201D31
:1031200000F029FB04F1180000F025FB2461C5F133
:1031300007006462A061E76484F850705246494613
:10314000304600F0F5F82060B8F1000F01D0C8F863
:103150000040BDE8F087000030B5114900E011469D
:103160000A688242FBD34B685C18844203D14068F2
:1031700018444860084643681C18944209D1084C1A
:10318000103C2468A24209D052681A4442600A687E
:1031900012680260814200D0086030BD0460F9E727
:1031A0003C0000200648416B096829B1416BC968A1
:1031B000C9684968816270474FF0FF31FAE7000043
:1031C0005000002008484068401C4FF0500080F339
:1031D000118804D0BFF34F8FBFF36F8FFEE7BFF3AB
:1031E0004F8FBFF36F8FFEE7440000202DE9F041C1
:1031F000044600F0E7FA94F9455004F1240609E08A
:10320000606A48B1304600F005FF08B100F09CFB51
:103210006D1E6DB2002DF3DC4FF0FF3684F8456073
:1032200000F0F0FA00F0CEFA94F9445004F11007DF
:1032300009E0206948B1384600F0ECFE08B100F022
:1032400083FB6D1E6DB2002DF3DC84F84460BDE895
:10325000F04100F0D7BA00002DE9F0410546002703
:1032600000F0D6FB314E306808B9FFF7F3FEF06886
:1032700005424BD1C5B3083568070ED005F00700ED
:10328000C0F108000544680707D0502080F311887A
:10329000BFF34F8FBFF36F8FFEE72DB3706885428A
:1032A00034D82248103001460C6801E020460C4614
:1032B0006168A94202D221680029F7D131688C42A5
:1032C00024D007682168016060680837411B102915
:1032D0000FD96019420708D0502080F31188BFF33E
:1032E0004F8FBFF36F8FFEE710E041606560FFF71F
:1032F00033FF61687068401A7060B268904200D213
:10330000B060F06801430020C4E9000100F0BCFE99
:10331000780707D0502080F31188BFF34F8FBFF399
:103320006F8FFEE73846BDE8F08100002C000020DA
:1033300010B5031F4FF080741C601B1F21F00101AA
:103340001960191F044B0B6014390A60091F6FF0D4
:10335000020244380A6010BDC531000870B50A8801
:10336000C2F30A02A2F5806202804B788C78DB08F7
:1033700043EA4413C3F30A05A5F5806545808B78BD
:10338000CC789B0943EA84030C7902F5257243EA61
:103390008423C3F30A04A4F5806484800B794E79F6
:1033A0005B0843EAC613C3F30A03A3F58063C38033
:1033B0004E79B60906724979C1F3011141724FF491
:1033C000A5618A420BD805F525758D4207D804F50D
:1033D00025748C4203D803F525738B4203D9002151
:1033E00001604160018170BD00B589B04FF400718A
:1033F0000291002108220491CDE905128DF81C10DC
:10340000018808AB090A8DF8001001788DF80110C9
:1034100041886A46090A8DF8021081788DF80310F8
:103420008188090A8DF8041001798DF80510C1888A
:10343000090A8DF8061080798DF8070002A907485F
:10344000FDF765FA18B1B92105A0FFF774FA034832
:10345000FDF7CBFB0328FAD109B000BDA001002085
:103460002E2E5C6273705C63616E5C6273705F636E
:10347000616E2E63000000002DE9F04781492DEDBB
:103480000A8BB0EE408A18EE100AF0EE608A88428D
:1034900002D39FED7D8A06E018EE100A7B49884230
:1034A00001DB9FED7B8A18EE900A7A49884202D3AD
:1034B000DFED798A06E018EE900A7849884201DB50
:1034C000DFED778A18EE900AFDF7E6F89FED759B21
:1034D00053EC192BFCF7E0FF9FED74AB53EC1A2B68
:1034E000FDF74CF89FED73BB53EC1B2BFDF746F833
:1034F00041EC1C0B9FED710AC8EE000A9FED700AAB
:1035000080EE808A18EE100AFDF7C6F853EC1C2BEB
:10351000FCF71BFFFDF7A1F86A4C05B218EE900A04
:103520002580FDF7B9F853EC192BFCF7B5FF53ECE8
:103530001A2BFDF723F853EC1B2BFDF71FF841EC7A
:103540001C0B18EE100AFDF7A7F853EC1C2BFCF728
:103550009DFFFDF782F807B2678018EE900AFDF72D
:103560009BF853EC192BFCF797FF53EC1A2BFDF744
:1035700005F853EC1B2BFDF701F841EC1C0B18EE82
:10358000100AFDF789F853EC1C2BFCF77FFFFDF7C1
:1035900064F806B2A68018EE900AFDF77DF853ECA9
:1035A000192BFCF779FF53EC1A2BFCF7E7FF53ECD0
:1035B0001B2BFCF7E3FF41EC190B18EE100AFDF78B
:1035C0006BF853EC192BFCF7C0FEFDF746F802B27E
:1035D0003D49E28048428D4201DC218002E0854283
:1035E00000DB20808F4201DC618002E0874200DB4B
:1035F00060808E4201DCA18002E0864200DBA08078
:103600008A4201DCE18002E0824200DBE080DFF8F8
:10361000BCA02F4EDFF8BC80DFF8BC90002500BFB7
:103620009AF8080002282BD034F8150006EB450163
:1036300006EB45078882C5EB051108EB8100B0F960
:103640000400B881B7F9141000EE101AF8EEC00AA1
:1036500000EE100A05EB450000EB0511B8EEC00ABC
:1036600009EB8100FFF730FBBDEEC00A6D1C042D95
:1036700010EE100AB883D3DBBDEC0A8BBDE8F087EF
:103680000020D3E700409CC500409CC500409C45FD
:1036900000409C45000096C3000096C3000096437E
:1036A000000096430000000000F0694000000000A8
:1036B00000404F40000000C086F2AA3F00007A425E
:1036C0003694573D8C000020CCDEFFFF9601002091
:1036D00024400020940000204840002018B50168D4
:1036E0000A68D20624D5CA68D20621D504460868DD
:1036F000486800900F4884421AD1606B00680168E6
:1037000021F001010160606B0068406880B22028F0
:1037100004D1094901F11200FFF720FE616B32204C
:1037200009684860606B0068016841F00101016050
:1037300018BD00004802002084010020D0E90132B9
:1037400001699A60D0E901235A604A68824201D136
:1037500082684A60002202610868401E0860704763
:1037600000F108014FF0FF32C0E90112C1600161B0
:1037700000210160704700210161704730B50B687E
:103780005A1C02D000F1080202E0026904E022465D
:10379000546825689D42FAD953684B6099608A60E5
:1037A000516008610168491C016030BD42684A608F
:1037B00093688B6093685960916008610168491C47
:1037C00001607047502080F31188BFF34F8FBFF323
:1037D0006F8F0A494868401C486001280CD108488E
:1037E000006810F0FF0F07D0502080F31188BFF35E
:1037F0004F8FBFF36F8FFEE770470000440000203B
:1038000004ED00E00849486828B1401E486001D135
:1038100080F311887047502080F31188BFF34F8FD9
:10382000BFF36F8FFEE700004400002070B5002852
:1038300027D0144DA0F108046168E868014207D15F
:10384000502080F31188BFF34F8FBFF36F8FFEE7D7
:1038500022683AB1502080F31188BFF34F8FBFF335
:103860006F8FFEE78143616000F0D2F8606869689D
:10387000084468602046FFF76FFCBDE8704000F028
:1038800003BC70BD2C00002006484FF47A7100681C
:10389000B0FBF1F14FF0E020491E416107210161C9
:1038A000704700002800002010B5FCF7E3FC114928
:1038B00010280ED300F1E02090F8F0030A7890422F
:1038C00007D2502080F31188BFF34F8FBFF36F8F63
:1038D000FEE709480068896800F4E060884207D97B
:1038E000502080F31188BFF34F8FBFF36F8FFEE737
:1038F00010BD0000440000200CED00E010B50200F7
:1039000014D00F48006B38B1502080F31188BFF3FA
:103910004F8FBFF36F8FFEE700F07AF8002110465B
:10392000FFF790FA00F0B0FB002807D105494FF0EF
:1039300080500860BFF34F8FBFF36F8F10BD000042
:103940005000002004ED00E001490120C8617047EB
:103950005000002010B50C4650B1094909681831D3
:10396000FFF70CFF2046BDE810400121FFF76ABABF
:10397000502080F31188BFF34F8FBFF36F8FFEE7A6
:103980005000002028B107490A6A0260C9684160F6
:103990007047502080F31188BFF34F8FBFF36F8FB4
:1039A000FEE70000500000201CB515480024CDE9BA
:1039B00000402346802213A1144800F033FA012866
:1039C00009D0401C1AD1502080F31188BFF34F8FCB
:1039D000BFF36F8FFEE7502080F31188BFF34F8F46
:1039E000BFF36F8F06484FF0FF312C388162012101
:1039F0004161C460BDE81C4000F040B81CBD00003F
:103A00007C00002049444C4500000000A130000823
:103A10000248016B491C0163704700005000002000
:103A20001448016B11B10121C16170470021C161CE
:103A30000169B1FA81F1C1F11F0101EB81020E4967
:103A400051F822306BB101EB820101F108034A68A1
:103A500052684A609A4201D152684A60D168016056
:103A60007047502080F31188BFF34F8FBFF36F8FE3
:103A7000FEE7000050000020283F00201CB532481F
:103A80000168324A914207D1502080F31188BFF378
:103A90004F8FBFF36F8FFEE700682C49491E8842A5
:103AA00007D1502080F31188BFF34F8FBFF36F8F82
:103AB000FEE7274908780190FF20087008788DF804
:103AC00000009DF800009DF8002000F0F0009042FA
:103AD00007D0502080F31188BFF34F8FBFF36F8F53
:103AE000FEE79DF800001B4A00F050001070072010
:103AF000906005E09DF800305B008DF80030401EBE
:103B00009DF800301B06F5D4000200F4E0609060E0
:103B1000019808700C482030016841F47001016080
:103B2000016841F070410160FFF7AEFE0020506077
:103B3000FCF766FB0848016841F040410160FCF772
:103B40004FFB00201CBD000000ED00E071C20F41E2
:103B500000E400E04400002034EF00E010B5502005
:103B600080F31188BFF34F8FBFF36F8F00F0A2F97E
:103B700018B104494FF080500860002080F311888C
:103B800010BD000004ED00E070B50E46050013D036
:103B9000D6B105FB06F04830FFF75EFB040009D004
:103BA00004F1480120468EB10160C0E90F560121A1
:103BB00000F00EF8204670BD502080F31188BFF34E
:103BC0004F8FBFF36F8FFEE70020E4E70060ECE764
:103BD00070B50D46040025D0FFF7F4FDD4E90F20A1
:103BE000216802FB001161600021A1632168A160CE
:103BF0000A46D4E90F01401E00FB0121E160214685
:103C00004FF0FF3001F8440F487004F110008DB1FF
:103C1000FFF7A6FD04F12400FFF7A2FDFFF7F2FD78
:103C2000012070BD502080F31188BFF34F8FBFF388
:103C30006F8FFEE721690029F0D000F0EBF9002832
:103C4000ECD004494FF080500860BFF34F8FBFF3B2
:103C50006F8FE3E704ED00E02DE9FF4782B01D46DA
:103C60008A464FF00008040003D0BAF1000F08D0D4
:103C700011E0502080F31188BFF34F8FBFF36F8F97
:103C8000FEE7206C38B1502080F31188BFF34F8FCE
:103C9000BFF36F8FFEE7022D0AD1E06B012807D03A
:103CA000502080F31188BFF34F8FBFF36F8FFEE773
:103CB00000F0E4F83F4F4FF000094FF0805648B94C
:103CC000049838B1502080F31188BFF34F8FBFF3B1
:103CD0006F8FFEE7FFF776FDA06BE16B884207D39D
:103CE000022D05D00498D0B1B8F1000F1AD01EE013
:103CF0002A4651462046FFF76DF9616A19B104F171
:103D0000240000F087F920B13E60BFF34F8FBFF36E
:103D10006F8FFFF777FD012006B0BDE8F087FFF752
:103D200071FD22E06846FFF72DFE4FF00108FFF716
:103D300069FDFFF76DFEFFF745FD94F94400401C57
:103D400001D184F8449094F94500401C01D184F8D5
:103D50004590FFF757FD04A9684600F02DF830B1F3
:103D60002046FFF743FA00F08FF90020D4E7FFF771
:103D700029FDA06BE16B884213D1FFF743FD04F1ED
:103D800010000499FFF7E6FD2046FFF72FFA00F038
:103D90007BF900289ED13E60BFF34F8FBFF36F8F3A
:103DA00098E7FFF72FFD2046FFF720FA00F06CF9A7
:103DB00090E7000004ED00E070B50D46040019D056
:103DC00005B3FFF7FFFC164AD1682868431C0FD0E3
:103DD0002368126A934202D062688A421AD96268E2
:103DE000891A814216D2401A28602046FFF7CAFD80
:103DF000002410E0502080F31188BFF34F8FBFF3F1
:103E00006F8FFEE7502080F31188BFF34F8FBFF311
:103E10006F8FFEE70124FFF7F5FC204670BD000020
:103E2000500000202DE9FF5F8346DDE90E879946AB
:103E300016468A469000FFF70FFA05001AD0542064
:103E4000FFF70AFA040012D025630021CDE90241F0
:103E5000CDE900874B46324651465846FFF734F9C4
:103E60002046FFF727F8012004B0BDE8F09F284660
:103E7000FFF7DCFC4FF0FF30F6E700000548416932
:103E800019B1006B18B10020704701207047022063
:103E900070470000500000200148C06870470000D3
:103EA0005000002010B5FFF7FFFC0148C06810BDAE
:103EB000500000202DE9F0412E4C0027206B40B12E
:103EC000A069401CA061E06900B101273846BDE847
:103ED000F081E668761CE66013D1606B006838B14B
:103EE000502080F31188BFF34F8FBFF36F8FFEE731
:103EF000606BA16B6163A063206A401C2062FFF7C6
:103F000051F9A06ADFF87080864209D3606B0068BF
:103F100080B1606BC068C568686886420DD2A062D7
:103F20002068C06A00EB800158F821000128CAD936
:103F30000127C8E74FF0FF30F1E7281DFFF7FEFB30
:103F4000A86A18B105F11800FFF7F8FBE86A01212B
:103F5000226981401143216100EB800108EB81005F
:103F6000291DFFF723FCE86A2168C96A8842CDD37E
:103F70000127CBE750000020283F002070B5040047
:103F80004FF0000140D0214D2868844207D05020D6
:103F900080F31188BFF34F8FBFF36F8FFEE7A06CE4
:103FA00038B1401EA064636CE26A9A422CD040B1E2
:103FB0002AE0502080F31188BFF34F8FBFF36F8F3B
:103FC000FEE7201DFFF7BAFB114A012150B9E06A54
:103FD00000EB800352F8233023B92B6901FA00F07B
:103FE00083432B61606CE062C0F10700A061E06A6E
:103FF0002B6981401943296100EB800002EB8000AE
:10400000211DFFF7D3FB0121084670BD50000020A1
:10401000283F00202DE9F041C068C468ACB104F12C
:1040200018000746FFF78AFB154D286B0126A0B143
:1040300039461448FFF7BAFBE06A2968C96A884222
:104040001CD90120EE61BDE8F081502080F3118879
:10405000BFF34F8FBFF36F8FFEE7201DFFF76EFB9F
:10406000E16A2A6906FA01F01043286101EB810038
:104070000449B43901EB8000211DDBE70020E2E7B1
:1040800050000020DC3F00202DE9F0472C4D00249B
:104090002746286B38B1FFF795FB286B401E286335
:1040A000286B40B146E0502080F31188BFF34F8F5A
:1040B000BFF36F8FFEE7A968224E0120D1B3A6F1AE
:1040C000B40980463068E8B1F068C46804F11800AB
:1040D000FFF734FB201DFFF731FBE06A2A6908FA7D
:1040E00000F11143296100EB800109EB8100211DE2
:1040F000FFF75CFBE06A2968C96A8842E2D3C5F829
:104100001C80DFE70CB1FFF74DF8AC6944B14646BF
:10411000FFF7D0FE00B1EE61641EF9D10020A86166
:10412000E86938B10849012738070860BFF34F8FA5
:10413000BFF36F8FFFF766FB3846BDE8F0870000DE
:1041400050000020DC3F002004ED00E09441000816
:10415000E1230008000000000000000080000000D3
:10416000A0410008E9230008000000000000000052
:104170008000000000061016000610160000000067
:104180000000000001020304060708090000000007
:104190000102030464656661756C745461736B009D
:1041A000636861737369735F6374726C5F74617366
:1041B0006B000000D44100080000002094000000C3
:1041C000382900086842000894000020345100009B
:1041D0004829000800000000000000000000000066
:1041E00000000000000000000000000000000000CF
:1041F0000100000010000000000000000024F40096
:1042000000000000000000000000000000000000AE
:10421000000000000000000000000000AAAAAAAAF6
:10422000000000000000000000000000000000008E
:10423000000000000000000000000000000000007E
:10424000000000000000000000000000000000006E
:10425000000000000000000000000000000000005E
:08426000000000000000000056
:04000005080001AD41
:00000001FF
