:020000040800F2
:10000000085300207D020008D329000811260008AB
:10001000D12900085D090008BD3200080000000079
:10002000000000000000000000000000C101000806
:10003000410A00080000000015020008992B000882
:10004000970200089702000897020008970200082C
:10005000970200089702000897020008970200081C
:10006000970200089702000897020008970200080C
:1000700097020008970200089702000897020008FC
:100080009702000897020008970200086D0900080F
:10009000610900089702000897020008430A000857
:1000A00097020008970200089702000897020008CC
:1000B00097020008970200089702000897020008BC
:1000C00097020008970200089702000897020008AC
:1000D000970200089932000897020008970200086A
:1000E000970200089702000897020008970200088C
:1000F000970200089702000897020008970200087C
:10010000970200089702000897020008970200086B
:10011000970200089702000897020008970200085B
:10012000970200089702000891090008970200084A
:100130009702000897020008970200088509000846
:100140009702000879090008970200089702000842
:10015000970200089702000897020008B1320008D1
:10016000970200089702000897020008970200080B
:10017000970200089702000897020008000000009C
:1001800097020008970200089702000897020008EB
:1001900097020008392A0008970200089702000811
:1001A000000000000000000097020008DFF80CD0FB
:1001B00000F0B0FB00480047A949000808530020A0
:1001C0002B4B19680868B0E8F04F80F30988BFF33B
:1001D0006F8F4FF0000080F311887047000000001F
:1001E00006480068006880F3088862B661B6BFF30D
:1001F0004F8FBFF36F8F00DF00BF00BF08ED00E03F
:10020000DFF80C00016841F470010160704700BF25
:1002100088ED00E0EFF30980BFF36F8F144B1A688D
:100220001EF0100F08BF20ED108A20E9F04F10607B
:1002300008B44FF0500080F31188BFF34F8FBFF325
:100240006F8F05F059FB4FF0000080F3118808BC58
:1002500019680868B0E8F04F1EF0100F08BFB0EC46
:10026000108A80F30988BFF36F8F704700BF00BF0B
:10027000B0000020EFF3058070470000064880477B
:1002800006480047FEE7FEE7FEE7FEE7FEE7FEE77B
:10029000FEE7FEE7FEE7FEE7512C0008AD0100088F
:1002A0002DE9F05F0546002092469B4688460646AB
:1002B000814640241BE0284641464746224600F03E
:1002C0001EF953465A46C01A914110D3114618469A
:1002D000224600F005F92D1A67EB01084F46224629
:1002E0000120002100F0FCF817EB00094E41201E10
:1002F000A4F10104DFDC484631462A464346BDE806
:10030000F09F40EA01039B0703D009E008C9121FD0
:1003100008C0042AFAD203E011F8013B00F8013BBF
:10032000521EF9D27047D2B201E000F8012B491EEB
:10033000FBD270470022F6E710B513460A46044682
:100340001946FFF7F0FF204610BD2DE9FE4F81EA68
:10035000030404F0004421F0004100944FF0000B2E
:1003600023F0004350EA01045ED052EA03045BD05C
:10037000C3F30A54C1F30A552C44A4F2F334019494
:10038000A0FB0254C1F3130141F48011C3F3130322
:1003900043F4801301FB024400FB034E840A970AD6
:1003A00044EA815447EA8357A4FB076802958D0A03
:1003B00005FB07854FEA932C04FB0C542705029D8F
:1003C0004FEA065847EA1637B5EB08056EEB070CFF
:1003D000870E920E47EA811742EA8312A7FB0201B9
:1003E000B6EB0B0164EB00042B0D43EA0C335E18F3
:1003F00044EB1C50DA465146E7FB0201C5F31304F7
:100400004FEA0B3343EA14534FEA0432019C43EAA8
:100410000603A4F10C040294009CCDE900B400F0A2
:10042000C4F803B0BDE8F08F00200146F9E70EB52F
:10043000C10F80EAE0700844CA07002140F233434C
:100440008DE80E000A460B4600F0AFF803B000BD81
:1004500000F0004230F000400AD0C10D01F560719B
:10046000C0F3160042EA0151C20840071143704729
:10047000002001467047000030B5041E71F10004F1
:1004800004DB4FF00044404264EB0101141E73F1A1
:10049000000405DB1C464FF00043524263EB0403AB
:1004A000994208BF904230BD01F0004330B421F0C2
:1004B000004150EA010206D00A0DA2F56072C1F3B4
:1004C0001301002A02DC30BC00207047440F44EACC
:1004D000C104C100E01830BC00EBC25000F01FB8EE
:1004E000202A04DB203A00FA02F1002070479140F4
:1004F000C2F1200320FA03F3194390407047202AE9
:1005000004DB203A21FA02F00021704721FA02F3BD
:10051000D040C2F12002914008431946704700299B
:10052000A8BF7047401C490008BF20F00100704779
:1005300010B4B0FA80FC00FA0CF050EA010404BFD9
:1005400010BC704749B1CCF1200421FA04F411FA2F
:100550000CF118BF012121430843A3EB0C01CB1D73
:100560004FEA00614FEA102042BF002010BC7047E4
:1005700000EBC35010440029A4BF10BC7047401CBE
:10058000490008BF20F0010010BC704710B5141ED0
:1005900073F1000408DA401C41F1000192185B413C
:1005A0001A4301D120F0010010BD2DE9F04D924613
:1005B0009B4611B1B1FA81F202E0B0FA80F220322A
:1005C0009046FFF78DFF04460F4640EA0A0041EAD5
:1005D0000B0153465A46084313D0114653EA010013
:1005E00019D0C8F140025046FFF789FF05460E4674
:1005F000504659464246FFF773FF084305D0012095
:1006000004E020463946BDE8F08D0020054346EA67
:10061000E0762C4337430A986305E40AA0EB080010
:100620000022FD0A44EA47540A3002D50020014660
:10063000E9E7010510196941DDE90845001969413B
:10064000BDE8F04DA2E72DE9FE4F804681EA0300A8
:10065000C00F0C46009021F0004123F00045B8EB9C
:100660000200A94105D24046214690461C460B4651
:10067000024623F00040104347D0270DC7F30A007D
:10068000C3F30A510290401A019040286BDAC3F379
:10069000130040F4801B0098924620B10023D2EB57
:1006A000030A63EB0B0B01985946C0F14002504618
:1006B000FFF716FF06460D4650465946019A00F0D0
:1006C0003BF910EB08006141002487EA115284EAEB
:1006D000E7731A4340D0009A62B3019A012A4FEAA5
:1006E000075215DC001B61EB02014FF0004202EAE9
:1006F0000752CDE90042001C41F5801132462B46DD
:10070000FFF753FF03B0BDE8F08F40462146F9E7FD
:10071000001B61EB0201001C41F5801300185B41D6
:100720002018A2F5001747EB030140EAD570B6196F
:100730006D4111E06D084FEA360645EAC0754FEA93
:100740000752001B61EB0201001C41F580114908B2
:100750004FEA30000019514132462B4603B0BDE844
:10076000F04FFFF713BF0098012240000023D0EBA9
:10077000020263EBE073009821464FEAE074B8EBA5
:10078000000061EB0401E9E783F000435BE781F0DF
:10079000004158E72DE9F04D81EA030404F0004BD5
:1007A00021F0004514464FF0000A23F0004150EAC2
:1007B000050220D054EA01021DD0C5F30A570246B3
:1007C000C5F31303C1F31300C1F30A5640F48015B7
:1007D00043F48013A7EB0608101BD64608F2FD3839
:1007E00073EB050002D308F1010801E092185B41A8
:1007F000B8F1000F03DA00200146BDE8F08D0020BB
:100800004FF48011064684460EE0171B73EB050774
:1008100005D3121B63EB050306434CEA010C4908A0
:100820004FEA300092185B4150EA0107EDD152EADD
:10083000030012D082EA040083EA0501084305D0D0
:10084000101BAB4106D20122002306E000224FF02C
:10085000004302E06FF0010253101AEB06004CEB6C
:10086000085110EB0A0041EB0B01BDE8F04DFFF71A
:100870008DBE2DE9F04D00231A461B1A8A4103DB79
:1008800000200146BDE8F08DC1F30A52C1F3130107
:1008900041F480154FF0000BD10702D100186D41D3
:1008A000521E0027044640F2FF11384601EB620A4F
:1008B0003E468046024600204FF48011FFF71FFE9F
:1008C000C2197141BB1846EB0100B4EB030C75EB88
:1008D000000C04D3E41A65EB000517460E462419F4
:1008E00008F101006D4180463428E3DDF91946EB3B
:1008F0000600091BA84103D24FF0FF32134601E066
:10090000002213461BEB070046EB0A51BDE8F04DF1
:10091000FFF73CBE064C074D06E0E06840F00103DF
:1009200094E8070098471034AC42F6D3FFF742FC36
:1009300090610008B0610008202A06DBCB17203A3E
:1009400041FA02F043EAE07306E041FA02F3D040D4
:10095000C2F120029140084319467047FEE70000AB
:10096000014800F00CBA000068020020014800F0C5
:1009700006BA000068020020014800F000BA00003A
:1009800090020020014800F0FAB900009002002017
:10099000014800F087BC0000CC0300200168182348
:1009A000CAB2103AB2FBF3F2054B6FF30901032A06
:1009B0009B5CC36500D9091D81650846704700002E
:1009C0006060000810B5014600208B698A6A4FF00C
:1009D000C07453B1B3F5005F15D072B1012A0CD0C9
:1009E000022A0AD0032A09D104E01AB1012A06D04A
:1009F000022A03D1C96AC90100D5012010BDC96A04
:100A0000A142FAD010BD002AF7D0012AF2D0022A62
:100A1000F3D0032AF3D010BD30B50468256825F45F
:100A200080252560046863608368402B036803D0D9
:100A300099600068C26030BD9A600068C16030BDD6
:100A400070474FF4807000F09FBD90F82020012A7D
:100A500009D090F82020022A05D0416A41F4802173
:100A6000416201207047006842690A4342610020E8
:100A70007047F0B590F82040012C07D090F8204046
:100A8000022C03D0416A41F4802153E00468A56838
:100A90006D0105D4A5682D0102D4A568ED0046D5E9
:100AA000A4680125C4F30164A5401D608D684FF45E
:100AB000C0739DB1CE6835434E6845EAC6050668E9
:100AC00003EB0417F5514FF4C275076805EB0415E5
:100AD0000E697E51097D012905D009E00E88CD6897
:100AE00045EA4655EBE701684E5946F480764E518B
:100AF0001179D2F805504FF4C67641EA0521056810
:100B000006EB0416A9511178D2F801204FF4C475F0
:100B100041EA0221026805EB04155151006803EB1C
:100B20000411425842F0010242500020F0BD416AD7
:100B300041F4001141620120F0BD000010B590F8B1
:100B40002020012A09D090F82020022A05D0416AED
:100B500041F480214162012010BD3A48D0F80022C2
:100B600042F00102C0F80022D0F8002222F47C52A8
:100B7000C0F80022D0F800224B6A42EA0322C0F8F3
:100B800000220B7D01229A40D0F81C329343C0F81A
:100B90001C32CB69B3B9D0F80C329343C0F80C3295
:100BA0008C894B6864F31F434C6900EBC404C4F8A0
:100BB00040320C890B6864F31F434C6900EBC4049A
:100BC000C4F84432CB69012B16D1D0F80C32134350
:100BD000C0F80C320C884B6864F31F434C6900EB7F
:100BE000C404C4F840320C89CB6864F31F434C69D9
:100BF00000EBC404C4F844328B69002BD0F80432F3
:100C00000ED01343C0F804320B69002BD0F8143215
:100C100008D01343C0F81432096A012904D008E04F
:100C20009343EFE79343F5E7D0F81C121143C0F864
:100C30001C12D0F8001221F00101C0F800120020AF
:100C400010BD0000006400400068416941F40F419C
:100C50004161704730B590F82040012C07D090F8E2
:100C60002040022C03D0416A41F4802109E011B1F7
:100C7000012909D00CE00468E46807E0416A41F406
:100C800000114162012030BD04682469A407F5D039
:100C90004FF4D874056804EB01142D5915F00405C0
:100CA000956005682D5942D0ED08556005682C59AE
:100CB000C4F34004D4604FF4DA74056804EB011403
:100CC0002D5905F00F05156105682D59C5F3072548
:100CD000956105682C59240C54614FF4DC7204684A
:100CE00002EB0112A4581C700468A458240A5C701A
:100CF0000468A458240C9C700468A258120EDA7080
:100D00004FF4DE72046802EB0112A4581C710468EF
:100D1000A458240A5C710468A458240C9C710468CB
:100D2000A258120EDA7129B1012909D00DE06D0D1A
:100D30001560BBE70068C16841F02001C16004E0B4
:100D40000068016941F020010161002030BD0146C9
:100D5000002091F82020012A03D091F82020022AB7
:100D60000CD109688A68520100D501208A681201F5
:100D700000D5401C8968C90000D5401C70472DE98A
:100D8000F05F0546006800244669D0F80490876843
:100D9000D0F80CB0D0F810A0D0F81880F10748D0E7
:100DA000F90714D001218160B80703D5284600F067
:100DB00060FA0CE0780702D54FF4006407E03807CA
:100DC00002D54FF4805402E0284600F051FAF805AD
:100DD00016D529684FF480708860B80503D5284679
:100DE00000F049FA0CE0780502D544F4005407E01D
:100DF000380502D544F4804402E0284600F03AFA6F
:100E0000F80316D529684FF480308860B80303D5FD
:100E1000284600F032FA0CE0780302D544F400448E
:100E200007E0380302D544F4803402E0284600F09D
:100E300023FA300707D55FEACB6004D52968102074
:100E400044F40074C86070074FF0080707D55FEAE4
:100E50000B7004D52868C760284600F08BF9B007EE
:100E600006D52868C068800702D0284600F084F9BB
:100E7000700607D55FEACA6004D52968102044F4DB
:100E800080640861B00607D55FEA0A7004D5286857
:100E90000761284600F0BCF9F00606D5286800690D
:100EA000800702D0284600F0B4F9B00308D55FEA05
:100EB000C96005D5296810204860284600F0AAF9C5
:100EC000F00307D55FEA097004D528684760284613
:100ED00000F0D4F9300446D55FEA497040D5F005FA
:100EE00004D55FEAC87001D044F00104B00504D510
:100EF0005FEA887001D544F00204700504D55FEA0A
:100F0000487001D544F00404300529D518F0700F5D
:100F100026D008F07000402815D006DC102809D033
:100F200020280AD0302816D10AE050280ED0602898
:100F300011D10EE044F008040DE044F010040AE082
:100F400044F0200407E044F0400404E044F080044E
:100F500001E044F480742868816921F070018161A6
:100F6000296804204860002C05D0686A2043686224
:100F70002846FFF769FEBDE8F09F70B5040003D076
:100F800094F8200010B104E0012070BD204600F06C
:100F900081F82068016821F00201016000F0ECFB9B
:100FA0000546052604E000F0E7FB401B0A2811D89F
:100FB000206840688007F6D42068016841F001018C
:100FC000016000F0D9FB05460BE000F0D5FB401BAB
:100FD0000A2806D9606A40F40030606284F8206014
:100FE000D2E720684068C007EFD0207E0128206843
:100FF00001683DD021F080010160607E01282068F9
:10100000016838D021F040010160A07E01282068ED
:10101000016833D021F020010160E07E01282068C2
:1010200001682ED041F010010160207F0128206866
:10103000016829D021F008010160607F0128206843
:10104000016824D021F004010160D4E902010843C1
:10105000D4E90412114308436168491E084321681A
:10106000C86100206062012084F82000002070BD6B
:1010700041F08001C0E741F04001C5E741F02001A7
:10108000CAE721F01001CFE741F00801D4E741F0B1
:101090000401D9E7F0B5324B0768DFF8C0C0186823
:1010A0000322022409252F490026401C87B06745EA
:1010B00021D11860012807D1086840F0007008604D
:1010C000086800F0007005908DE85400CDE9032514
:1010D0006946254800F064FA00220521132000F03B
:1010E000E1FB132000F0D2FB00220521142000F0C8
:1010F000D9FB14202EE0DFF874C067452CD10F68AF
:1011000047F080670F600F68012807F08067059738
:10111000186007D1086840F000700860086800F0A7
:10112000007005904FF440508DE85100CDE9032543
:1011300069460F4800F034FA002205213F2000F0F4
:10114000B1FB3F2000F0A2FB00220521412000F06E
:10115000A9FB412000F09AFB07B0F0BD00640040FD
:101160006C00002040380240000C02400068004043
:10117000000402407047000000B587B01B4B6A4670
:101180000021FFF767FD18B18C2119A002F097F834
:101190000098A0F5007101390AD0A0F5007102395C
:1011A00006D0A0F50071033902D0B0F5017F14D14B
:1011B0000E49401E491EC0B20870C0EB0011124813
:1011C00000EB810081694A1C32290849826102D8FA
:1011D00002F0D4FE01E002F093FE0C480068416981
:1011E00041F00201416107B000BD00000100002094
:1011F0002E2E5C6273705C63616E5C6273705F6301
:10120000616E2E6300000000F800002068020020DC
:10121000704770477047000070B5044690F8200092
:10122000012804D0606A40F40020606218E00220C7
:1012300084F820002068016821F00101016000F0BD
:101240009BFA05460EE000BF00F096FA401B0A2804
:1012500008D9606A40F400306062052084F82000FC
:10126000012070BD20684068C007EDD1606270BD8C
:10127000704770477047704770477047704790F8E5
:101280003510022903D080214165012070470521D6
:1012900080F835100068016821F00101016000202C
:1012A000704700002DE9F84304464FF00009CDF8DF
:1012B000009063484FF41651A56D0068B0FBF1F73C
:1012C0002E6894F85C10082000FA01F131420FD02A
:1012D00021680A6852070BD50A6822F004020A60E6
:1012E00094F85C108840A860606D40F00100606573
:1012F00094F85C104FF0010808FA01F0304208D071
:1013000021684969090604D5A860606D40F00200B3
:10131000606594F85C1004208840304208D0216851
:101320000968890704D5A860606D40F00400606515
:1013300094F85C1010208840304218D02168096869
:10134000090714D5A86020680168490304D500681E
:10135000000308D5A16C07E00168C90503D4016842
:1013600021F008010160216C09B12046884794F8FA
:101370005C1020208840304231D021680968C906BD
:101380002DD5A86094F8350005282068016806D09E
:10139000490347D5006800031DD4616C1CE021F0AF
:1013A000160101602068416921F080014161206CD3
:1013B00008B9A06C20B12068016821F00801016023
:1013C00094F85C103F208840A86084F8349084F83A
:1013D0003580216D1FE0E16B09B120468847606DC3
:1013E00000282BD0606DC00714D0052084F835008C
:1013F0002068016821F0010101600098401C009004
:10140000B84203D820680068C007F6D184F8349049
:1014100084F83580E16C002910D001B02046BDE889
:10142000F04308470168C905D5D4016821F01001CF
:10143000016084F8349084F83580CCE7BDE8F88307
:10144000880000202DE9F041044600F095F9064699
:101450005CB1002584F83450022084F835002068FF
:10146000016821F0010101600DE00120BDE8F0817B
:1014700000F082F9801B052805D920206065032033
:1014800084F83500F2E720680068C007F0D12268D0
:10149000116820480140D4E901031843D4E9033618
:1014A0003343184363691843A3691843E369184336
:1014B000236A18430843616A042903D1D4E90B1352
:1014C00019430843106020684069666A20F00701EC
:1014D00030460E43012704280CD1A06A0643E06A77
:1014E00040B12046FFF76EFA20B14020606584F8D5
:1014F0003570BAE7206846612046FFF74FFA94F846
:101500005C203F2191408160656584F83570002042
:10151000ACE700003F8010F070B5044690F834004E
:10152000002501280CD0012084F8340094F835609F
:101530000020012E06D084F834000225284670BD14
:10154000022070BD022684F8356060652046FFF7F2
:1015500063FA2068016841F001010160EEE70000D4
:1015600070B5044600F008F90546601C02D0044836
:101570000078044400F000F9401BA042FAD370BD8B
:101580007C00002070470000044910B50A68024240
:1015900002D00860FFF7F6FF10BD0000143C0140C8
:1015A0002DE9F84FDFF890B100224FF001084FF01D
:1015B000030A4FF00F090BF1040E00BF0B6808FA85
:1015C00002F42340A3426ED14D68022D01D0122DAA
:1015D0000ED1D50800EB850CDCF820505607F70E2D
:1015E00009FA07F6B5430E69BE402E43CCF82060D9
:1015F000066855000F790AFA05FC07F0030726EA8A
:101600000C06AF40374307604E68012E05D0022E0E
:1016100003D0112E01D0122E0ED18768CE6827EA92
:101620000C07AE403E4386604668A6430C79C4F37F
:101630000014944034434460C4688E6824EA0C0467
:10164000AE402643C6604C68E4006FD53B4C25682D
:1016500045F480452560246822F0030504F48044A5
:101660000094374C2E19D6F8084895072F0F09FA21
:1016700007F5AC43334DA84201D100252EE0324D91
:10168000A84201D1012529E0304DA84201D102250F
:1016900024E02F4DA84201D103251FE02D4DA84283
:1016A00002D104251AE041E02B4DA84201D10525C5
:1016B00014E02A4DA84201D106250FE0284DA8428A
:1016C00001D107250AE0274DA84201D1082505E0F0
:1016D000254DA84201D1092500E00A25BD4025433A
:1016E000C6F80858DBF800405D464E689C43F60398
:1016F00000D51C432C60DEF8004075464E689C43C4
:10170000B60300D51C432C600B4D08352C684E6881
:101710009C43F60200D51C432C60074D0C352C6809
:101720004E689C43B60200D51C432C60521C102A04
:10173000FFF444AFBDE8F88F003C0140443802405C
:101740000030014000000240000402400008024056
:10175000000C024000100240001402400018024039
:10176000001C024000200240002402400AB18161B6
:1017700070470904FBE700000148806870470000DB
:101780007C00002002488168027811448160704723
:101790007C0000200B4810B5016841F40071016025
:1017A000016841F480610160016841F48071016069
:1017B000032000F097F80F2000F006F800F024F85E
:1017C000002010BD003C024070B50D4D04464FF4A2
:1017D0007A712878B1FBF0F00A490968B1FBF0F0A2
:1017E00000F01AFD48B9102C07D200222146501EE5
:1017F00000F058F800206C6070BD012070BD000042
:101800007C000020880000201F4808B5016841F4D2
:1018100080410160006800F4804000901A48001F79
:10182000016841F080510160006800F08050009034
:10183000032000F057F8002211466FF00B0000F073
:1018400031F8002211466FF00A0000F02BF8002258
:1018500011466FF0090000F025F800221146501FD4
:1018600000F020F800221146101F00F01BF80022A3
:101870000F21901E00F016F800220F21BDE808404D
:10188000501E00F00FB800004438024000F01F0264
:10189000012191404009800000F1E020C0F80011D2
:1018A00070470000F0B40E4B1B680C46C3F30223D4
:1018B000C3F10705042D00D90425191D072901D2FC
:1018C000002300E0DB1E012606FA05F1491E214037
:1018D00099409E40761E16403143F0BC01F07AB824
:1018E0000CED00E0064900F0070208684FF6FF0320
:1018F000184040EA0220034A104308607047000085
:101900000CED00E00000FA052DE9F84317480168E6
:1019100041F0805101600068154F00F080500126B1
:1019200000903E64FFF728FF05464FF47A78114C8B
:1019300005E000BFFFF720FF401B40450DD8606861
:10194000C003F7D57E64FFF717FF0546464607E05C
:10195000FFF712FF401BB04202D90320BDE8F88315
:1019600060688003F4D50020F8E7000040380240AA
:1019700000000E42007000402DE9F0470E460500C1
:1019800065D0DFF81481D8F80000F7B200F00F003E
:10199000B04207D288F80070D8F8000000F00F00BD
:1019A000B04254D128683D4C810712D5400703D579
:1019B000206840F4E05020602878000703D52068B4
:1019C00040F4604020602068A96820F0F0000843DF
:1019D00020602878C0072DD0304968680839012870
:1019E00012D0022813D0032811D0096889070029D2
:1019F0002DDA216821F0030101432160FFF7BCFECD
:101A0000814641F2883A0EE009688903EFE70968E8
:101A10008901ECE7FFF7B0FEA0EB0901514502D9BF
:101A20000320BDE8F0872068696800F00C00B0EB87
:101A3000810FEFD1D8F80010404601F00F01B142FC
:101A400007D90770006800F00F00B04201D00120F4
:101A5000E7E72878400705D52068E96820F4E050DA
:101A6000084320602878000706D52068296920F4FB
:101A7000604040EAC100206000F03CF82168084A5C
:101A8000C1F30311515CC840064908600F20FFF7FD
:101A90009BFE0020C5E70000003C024008380240E1
:101AA0006860000888000020014800687047000056
:101AB000880000200448054900680968044AC1F309
:101AC0008221515CC84070478800002008380240DD
:101AD000786000080448054900680968044AC1F3B1
:101AE0004231515CC84070478800002008380240ED
:101AF00078600008154810B5006810F00C02144812
:101B000013D01449042A0FD0082A0ED10F4C241FD9
:101B10002268236802F03F025B0207D52068C0F309
:101B20008810A0FB010106E0084610BD2168C1F342
:101B30008811A1FB00010023FEF7B2FB2168C1F36D
:101B40000141491C4900B0FBF1F010BD08380240CA
:101B50000024F400001BB7002DE9F84F050076D0F3
:101B60002878DFF8F8B2BE4CC00749D0DBF8001087
:101B70005846C1F38101012908D00068C0F38100F3
:101B800002280AD1201D0068400206D52068800383
:101B900036D568680028E2D032E06868B0F5803F4A
:101BA00010D0B0F5A02F206810D020F48030206035
:101BB000206820F4802020606868A0B1FFF7DCFD79
:101BC00006460CE0206840F48030F4E740F48020C2
:101BD0002060F7E7FFF7D0FD801B642873D82068EA
:101BE0008003F7D50CE0FFF7C7FD064605E000BF10
:101BF000FFF7C2FD801B6428F0D820688003F7D46B
:101C00002878DFF8608280074FF000093ED5DBF8C6
:101C10000010584611F00C0F09D00068C0F3810085
:101C200002280BD18D48001F0068400206D42068AE
:101C3000800715D5E868012809D111E0E868B8B136
:101C40000120C8F80000FFF797FD064605E002E115
:101C5000FFF792FD801B0228C0D820688007F7D5C7
:101C60002068296920F0F80040EAC10020600DE0FA
:101C7000C8F80090FFF780FD064604E0FFF77CFD02
:101C8000801B02281FD820688007F7D42878000717
:101C900022D5724E744869696C3671B101210160B8
:101CA000FFF76AFD074604E0FFF766FDC01B022848
:101CB00009D830688007F7D50EE0C0F80090FFF72C
:101CC0005BFD074605E083E0FFF756FDC01B0228D9
:101CD0007ED830688007F7D42878400768D5DFF8C9
:101CE0007CA100270AF1380ADAF80000C0000BD402
:101CF000DAF8001041F08051CAF80010DAF800005C
:101D0000012700F080500090584E3068C00510D474
:101D1000306840F480703060FFF72EFD009005E0E1
:101D2000FFF72AFD0099401A022851D83068C005F3
:101D3000F6D54A4EA868683601280FD005283068C5
:101D400010D020F001003060306820F004003060D6
:101D5000A868B8B1FFF710FD00900FE0306840F0C0
:101D60000100F4E740F004003060F7E7FFF704FDFE
:101D70000099411A41F28830814264D83068800766
:101D8000F4D50EE0FFF7F8FC009007E0FFF7F4FC55
:101D90000099411A41F28830814254D83068800756
:101DA000F4D42FB1DAF8001021F08051CAF80010F5
:101DB000A869C0B3DBF80010C1F3810102294AD041
:101DC0000228484607D0C8F86000FFF7D5FC00E0BD
:101DD00039E005463AE04746C8F86000FFF7CCFC1A
:101DE000064604E0FFF7C8FC801B02282BD82068B9
:101DF0008001F7D4D5E907010843A96A1C4A4908BC
:101E000002EB01416A6A41EA8211084395F82C10FD
:101E100040EA01611148001F016001203866FFF7A8
:101E2000ABFC054605E014E0FFF7A6FC401B0228CA
:101E300009D820688001F7D50BE000BFFFF79CFCB4
:101E4000401B022802D90320BDE8F88F20688001DA
:101E5000F4D40020F8E70120F6E70000083802403B
:101E60000038024000004742800E474200700040A8
:101E70000000FFFF7047000038B504460068426864
:101E800081684B0605D4CB0703D0530601D5216CDE
:101E900004E08B0707D5130605D5616C01B0204619
:101EA000BDE83040084711F4B07F48D0930646D5CE
:101EB0004B060AD594F85130032B3DD0636D43F0A7
:101EC00004036365C368836800938B0609D5636D5B
:101ED00043F00103636583680093036823F04003C4
:101EE0000360C80506D5606D40F008006065206895
:101EF00080680090606D002821D02068416821F042
:101F0000E0014160012084F85100900718D020685A
:101F1000416821F0030141600B4DE06C18B105658B
:101F2000E06CFFF7ACF9A06C002808D00565A06C48
:101F3000BDE83840FFF7A3B9C1688068009038BD9C
:101F40002046FFF797FF38BD652A000870B50400EA
:101F500005D00025A56294F8510010B106E00120DB
:101F600070BD84F85050204600F030F8022084F80C
:101F700051002068016821F040010160D4E90101AD
:101F80000843D4E903121143084361690843218BD4
:101F900001F400710843E1690843216A0843A16A1A
:101FA000084321680860A069042101EA1040616AC1
:101FB0000843216848602068C16921F40061C1615B
:101FC0006565012084F85100002070BD00B50068EF
:101FD000124987B088421FD111480021026842F49B
:101FE00080120260006800F4801005904FF4607069
:101FF00000900220CDE90101032003900520049008
:1020000069460848FFF7CCFA002205215520FFF762
:1020100049FC5520FFF73AFC07B000BD00500140D5
:1020200044380240001402402DE9F84F044690F86D
:10203000500000260A9F9A4693460D464FF001082D
:1020400001280ED0012084F85000FFF795FB81464F
:1020500094F85100616801280CD0B1F5827F07D156
:1020600002E00220BDE8F88FA16809B9042801D078
:102070000226BDE055B1BBF1000F07D0BAF1000F49
:1020800004D094F85100012802D004E00126AFE00A
:10209000052084F8510000206065C4F838B0A4F829
:1020A0003EA0A4F83CA02563A4F836A0A4F834A070
:1020B0002064606420680168490603D4016841F027
:1020C00040010160E068B0F5006F606804D0E8B3DB
:1020D000E08E01283BD06AE010B1E08E01282ED1BD
:1020E000216835F8020BC860E08E401EE08626E0CD
:1020F000B8F1000F0DD0E08E58B1206881688907D3
:1021000007D535F8021BC160E08E401EE0864FF017
:102110000008E08F58B120688168C90707D0C068FF
:102120002BF8020BE08F401EE0874FF00108781C6F
:1021300005D0FFF721FBA0EB0900B84246D2E08EA4
:102140000028D5D1E08F0028D2D136E0FFE7216802
:1021500015F8010B0873E08E401EE08627E000BFF3
:10216000B8F1000F0DD0E08E58B120688168890762
:1021700007D515F8011B0173E08E401EE0864FF075
:102180000008E08F58B120688168C90707D0C0688F
:102190000BF8010BE08F401EE0874FF00108781C20
:1021A00005D0FFF7E9FAA0EB0900B8420ED2E08EA5
:1021B0000028D5D1E08F0028D2D13B460122022150
:1021C0002046CDF8009000F055FC08B103260FE042
:1021D0004A463946204600F035FC18B10126202039
:1021E000606505E0A06818B92068C1688068009043
:1021F000012084F85100002084F85000304631E777
:102200004FF0E0210428086903D020F004000861A1
:10221000704740F00400FAE710B5401EB0F1807F2F
:1022200001D3012010BD4FF0E02460610F21601741
:1022300000F0D0FB0020A06107202061002010BD2D
:1022400000B50068094985B088420CD14020009053
:10225000022001900020029003900920049069461A
:102260000348FFF79DF905B000BD000000180040CD
:10227000001C024070B5044690F838000D46012855
:102280000DD0012684F83860022084F8390042B16C
:10229000042A18D0082A2AD00C2A4DD139E002206D
:1022A00070BD206800F05EFD2068816941F0080182
:1022B00081612068816921F0040181612068816960
:1022C0002A69114311E0206800F078FD20688169D7
:1022D00041F4006181612068816921F4806181613C
:1022E000206881692A6941EA0221816124E020682D
:1022F00000F096FD2068C16941F00801C1612068C5
:10230000C16921F00401C1612068C1692A691143D2
:1023100011E0206800F0B4FD2068C16941F400615B
:10232000C1612068C16921F48061C1612068C1690F
:102330002A6941EA0221C16184F83960002084F8E9
:10234000380070BD10B5040003D094F8390010B106
:1023500007E0012010BD002084F83800204600F07E
:102360000DF8022084F83900211D206800F09AFC45
:10237000012084F83900002010BD000008B5006875
:102380000649884208D10648016841F040010160D1
:10239000006800F04000009008BD000000180040F8
:1023A000403802407047000070B50268044610686B
:1023B000D168536910F00F0F50D003F0010501F4FC
:1023C000907635435DD0C20705D0CA0503D5E26BD0
:1023D00042F00102E263420705D5DA0703D0E26B5F
:1023E00042F00202E263820705D5DA0703D0E26B0E
:1023F00042F00402E263020705D5DA0703D0E26B7C
:1024000042F00802E263E26B002A33D0800604D572
:10241000880602D5204600F071FD20684069E16B16
:10242000C0F38010090700D428B3204600F058FDFF
:102430002068416949061AD5416921F0400141618E
:10244000606BA0B11B490165606BFEF718FF0028A7
:1024500010D0606B016DBDE870400847830610D551
:102460008B060ED52046BDE8704000F047BD2046E3
:10247000FFF798FF70BD2046FFF794FF0020E06350
:1024800070BD030606D50B0604D52046BDE8704096
:1024900000F0D0BE4006F3D54806F1D5D1682046FD
:1024A00021F04001D160202184F8391000F0AFF80C
:1024B00070BD0000D12E000870B5040004D094F85F
:1024C0003900002510B106E0012070BD84F83850B5
:1024D000204600F023F8242084F839002068C168E1
:1024E00021F40051C160204600F04EFD20680169D2
:1024F00021F4904101612068416921F02A01416184
:102500002068C16841F40051C160E563202084F86F
:10251000390084F83A00002070BD0000F0B506468E
:102520002F4F046800252F4902200122032387B082
:10253000BC4233D10C6844F010040C60096801AC53
:1025400001F010010591C021009184E80D000720E1
:10255000049069462448FFF723F8254C234820605F
:102560004FF00060C4E901054014C4E90350801035
:102570006561C4E90650256220466562FEF762FF88
:1025800018B18C211BA000F09AFE74630022052173
:102590002520A663FFF786F925201CE0194DAC42E3
:1025A0001BD10C6844F020040C60096801AC01F0F8
:1025B000200105914FF48441009184E80D0008202A
:1025C000049069461048FEF7EBFF002205214720E2
:1025D000FFF768F94720FFF759F907B0F0BD000091
:1025E00000100140443802400004024040640240B0
:1025F000CC0300202E2E2F5372632F7573617274DB
:102600002E6300000014014000180240704770471C
:10261000FEE70000104810B50E4901600521416039
:1026200000214FF400328160C0E90312520142617F
:102630000176012242768176C17601774177FEF7F5
:102640009CFC002805D0BDE81040502103A000F0FC
:1026500036BE10BD00640040680200202E2E2F53AD
:1026600072632F63616E2E6300000000104810B586
:102670000E4901600521416000214FF40032816064
:10268000C0E903125201426101760122427681764D
:10269000C17601774177FEF770FC002805D0BDE8D0
:1026A0001040662103A000F00ABE10BD0068004083
:1026B000900200202E2E2F5372632F63616E2E63C3
:1026C00000000000094808B5016841F4800101607C
:1026D0000068002200F48000009005213A20FFF7F6
:1026E000E1F8BDE808403A20FFF7D0B830380240A2
:1026F00010B58CB000200A9001210AA802F077FBE7
:102700000C4C14220C49A0606846FDF7FAFD00212C
:10271000684602F089FB084960601422143105A85C
:10272000FDF7EFFD002105A802F07EFB20600CB054
:1027300010BD000070000020386000082DE9F04F47
:10274000454887B00024016841F00201016001683A
:1027500001F002010591016841F04001016001684A
:1027600001F040010591016841F00101016001683B
:1027700001F001010591016841F008010160016863
:1027800001F008010591016841F0800101600168D4
:1027900001F080010591016841F0200101600168AC
:1027A00001F020010591016841F01001016000680D
:1027B000DFF8A88000F01000059000223C21404680
:1027C000FEF7D4FFDFF8989044F24006002231462D
:1027D0004846FEF7CBFFDFF88CB04FF400670022CD
:1027E00039465846FEF7C2FFF81000901E48CDE962
:1027F0000104DFF878A069465046FEF7D1FE3C2080
:1028000000900125CDE90154694640460394FEF746
:10281000C7FE0096CDE90154694648460394FEF789
:10282000BFFE0420CDE90004694650460294FEF73D
:10283000B7FE0097CDE90154694658460394FEF768
:10284000AFFE002205211720FFF72CF81720FFF715
:102850001DF807B0BDE8F08F30380240001C024080
:102860000014024000100240000011100004024059
:10287000114810B50F4901604FF482714160002189
:102880008160C1604FF400720161C0E9051230221D
:10289000C0E90721416281620A21C162FFF756FB4C
:1028A000002805D0BDE810404F2104A000F007BD6E
:1028B00010BD000000500140B80200202E2E2F5302
:1028C00072632F7370692E630000000010B5134807
:1028D00088B011490024C0E900148460C460046118
:1028E000FFF730FD18B147210DA000F0E8FC602093
:1028F000CDE9000402940022694608480494FFF7D9
:10290000B9FC18B1502106A000F0D9FC0348FFF72C
:1029100097FC08B010BD0000001800401003002014
:102920002E2E2F5372632F74696D2E6300000000EA
:102930000E4810B50C4901600D49416000214FF46B
:1029400080628160C0E903120C22C0E90521C161E7
:10295000FFF7B2FD002805D0BDE810404F2105A0CB
:1029600000F0ADBC10BD0000001001404C03002081
:10297000A08601002E2E2F5372632F75736172741F
:102980002E6300000D4810B50B4901604FF4E13192
:102990004160002181600C22C160C0E904128161A4
:1029A000C161FFF789FD002805D0BDE81040622114
:1029B00003A000F084BC10BD001401408C03002073
:1029C0002E2E2F5372632F75736172742E63000065
:1029D000FEE770470907090E002806DA00F00F002D
:1029E00000F1E02080F8141D704700F1E02080F82D
:1029F0000014704710B504462DED048BB0EE418AEB
:102A0000F0EE608A0A4860640A48A064B0EE409A1A
:102A1000204602F020FAA16CB0EE481AF0EE680AE7
:102A2000B0EE490ABDEC048B2046BDE810400847D3
:102A3000574E0008654E00080148FFF71DBA000018
:102A4000B802002038B50B460092044600228021CF
:102A500000F010F8002804D0606D40F020006065A0
:102A6000032038BD10B5806B0021C187C186FFF7F8
:102A700001FA10BD2DE9F0411D4617460E460446E9
:102A8000DDF8188035E0681C33D02DB1FEF774FEF8
:102A9000A0EB0800A8422CD32068416821F0E00197
:102AA00041606068B0F5827F0BD1A068B0F5004F3F
:102AB00002D0B0F5806F04D12068016821F0400198
:102AC0000160A06AB0F5005F0AD1206801684DF688
:102AD000FF72114001602068016841F400510160FB
:102AE000012084F85100002084F850000320BDE844
:102AF000F0812068806836EA000004D00020B842E7
:102B0000C1D10020F3E70120F9E7012001F010FF17
:102B1000012002F04DF9F8E708B501F073FF01F06C
:102B200049FD01F069F902F056F9194D194C174F9A
:102B30006E4204F11C08009001F096FF01F024FAA7
:102B400001F078FCB7F9020000EE100AF8EEC00AB6
:102B500097ED0B0A01F0F6F800B2A083E083A842DB
:102B600001DCA58302E0B04200DBA683A84201DCC1
:102B7000E58302E0B04200DBE683404602F054FC0D
:102B80000521684602F01BF9D6E700000402002088
:102B9000F0D8FFFF1C41002010B5FEF7F3FDBDE8A3
:102BA000104002F037B9000030B5274893B0002537
:102BB000016841F080510160006800F08050119080
:102BC0002248016841F4404101600068022400F499
:102BD0004040119001200090000401908001CDE957
:102BE000064006200890B420CDE9090404200B908B
:102BF0006846FEF7B1FF00B1FEE7FEF785FE00B1C3
:102C0000FEE70CA90F2081E831004FF4A0500F908F
:102C10004FF48050109005210CA8FEF7ADFE00B1D6
:102C2000FEE7FEF741FF4FF47A71B0FBF1F0FFF7DA
:102C3000F3FA0420FFF7E4FA00220F21501EFEF7FA
:102C400031FE13B030BD000040380240007000403B
:102C50001048016841F4700101600F48016841F0BB
:102C6000010101600C4A00210832116002680B4B1F
:102C70001A400260031D0A4A1A60026822F4802288
:102C8000026005480C30016002495806803908602E
:102C90007047000088ED00E000380240FFFFF6FEBC
:102CA00010300024F0B50268234B244D244E254FEC
:102CB000254C4FF0804C984209D0604507D0A8427F
:102CC00005D0B04203D0B84201D0A04204D122F0D6
:102CD000700E4A6842EA0E0298421BD0604519D035
:102CE000A84217D0B04215D0B84213D0A04211D09C
:102CF000164DA8420ED0164DA8420BD0154DA84235
:102D000008D0154DA84205D0144DA84202D0144D4C
:102D1000A84203D122F44075CA682A4302608A6837
:102D2000C2620A688262984201D0A04201D1096958
:102D3000016301214161F0BD000001400004004039
:102D400000080040000C0040000401400040014029
:102D5000004401400048014000180040001C0040B1
:102D60000020004030B5026A22F001020262026ACD
:102D7000436884690D6824F07304254322F002043B
:102D80008A6822430B4CA04202D00B4CA0420BD1CC
:102D900022F00804CA6823F4407322434C6922F0ED
:102DA00004021C438B692343436085614968416386
:102DB000026230BD000001400004014030B5026AEB
:102DC00022F010020262026A436884690D6824F4EA
:102DD000E64444EA05248D6822F0200242EA051206
:102DE0000D4DA84202D00D4DA8420ED1CD6822F063
:102DF000800242EA05124D6923F4406343EA8503E9
:102E00008D6922F0400243EA85034360846149688A
:102E10008163026230BD00000000014000040140F7
:102E200030B5026A22F480720262036A4268C469A1
:102E300023F4007324F073050C682C438D6843EA77
:102E400005230D4DA84202D00C4DA8420ED1CD68ED
:102E500023F4006343EA05234D6922F4405242EA19
:102E600005128D6923F4806342EA05124260C46151
:102E70004968C163036230BD0000014000040140A5
:102E800030B5026A22F480520262046A4268C36961
:102E90000D6823F4E64343EA05238D6824F40054C7
:102EA00044EA0534084DA84202D0084DA84204D196
:102EB0004D6922F4804242EA85124260C36149684A
:102EC0000164046230BD00000000014000040140C4
:102ED00010B5806B0021C185C184FFF763FA10BD76
:102EE0000168CA6822F49072CA6001684A6922F0D7
:102EF00001024A61202180F83A10704710B590F81D
:102F00003A10222901D0022010BD8168B1F5805FFE
:102F100011D00169002901681FD0496801F07F03C1
:102F2000816A4A1C82620B70C18D491E0904090C1A
:102F3000C18518D026E00269816A002A02685268B9
:102F400005D0D2B20A80816A491C8162ECE7C2F3E3
:102F500008020A80816A891CF7E74A68816A4B1C6B
:102F600083620A70E0E70168CA6822F49072CA605E
:102F700001684A6922F001024A61202180F83A1072
:102F8000FFF744FB002010BD2DE9F0410446006826
:102F9000016921F44052E168114301612168C86868
:102FA00049F20C6290432369A268E5691A43636998
:102FB0002B431A430243CA602168486920F44072D7
:102FC000A06910434861E1696425B1F5004F974855
:102FD000974A21684FF032083FD0914201D0814298
:102FE0007CD1FEF777FD00EBC00101EB00106168BA
:102FF0008900B0FBF1F6FEF76DFD00EBC00101EBBF
:10300000001061688900B0FBF1F0B0FBF5F06FF0E3
:103010001801484306EB800108EB0110B0FBF5F006
:1030200000F0F006FEF756FD00EBC00101EB0010CA
:1030300061688900B0FBF1F0B0FBF5F006EB00161B
:10304000FEF748FD00EBC00101EB0010616889004C
:10305000B0FBF1F7FEF73EFDD2E0914201D0814294
:103060003DD1FEF737FD00EBC00101EB00106168B8
:103070004900B0FBF1F0B0FBF5F00601FEF72AFDC8
:1030800000EBC00101EB001061684900B0FBF1F7F3
:10309000FEF720FD00EBC00101EB00106168490064
:1030A000B0FBF1F0B0FBF5F06FF01801484307EB0F
:1030B000800108EBC100B0FBF5F000F0F80006EB72
:1030C0004006FEF707FD00EBC00101EB0010616850
:1030D0004900B0FBF1F7FEF7FDFC3CE055E0FEF7E0
:1030E000E9FC00EBC00101EB001061684900B0FB96
:1030F000F1F0B0FBF5F00601FEF7DCFC00EBC001DF
:1031000001EB001061684900B0FBF1F7FEF7D2FC5B
:1031100000EBC00101EB001061684900B0FBF1F069
:10312000B0FBF5F06FF01801484307EB800108EBA6
:10313000C100B0FBF5F000F0F80006EB4006FEF72A
:10314000B9FC00EBC00101EB001061684900B0FB65
:10315000F1F7FEF7AFFC00EBC00101EB0010616876
:103160004900B0FBF1F0B0FBF5F06FF018014843F7
:1031700007EB800108EBC100B0FBF5F000F00700A1
:10318000216830448860BDE8F081FEF793FC00EBD5
:10319000C00101EB001061688900B0FBF1F6FEF799
:1031A00089FC00EBC00101EB001061688900B0FBF5
:1031B000F1F0B0FBF5F06FF01801484306EB800129
:1031C00008EB0110B0FBF5F000F0F006FEF772FC22
:1031D00000EBC00101EB001061688900B0FBF1F069
:1031E000B0FBF5F006EB0016FEF764FC00EBC00147
:1031F00001EB001061688900B0FBF1F7FEF75AFCA3
:1032000000EBC00101EB001061688900B0FBF1F038
:10321000B0FBF5F06FF01801484307EB800108EBB5
:103220000110B0FBF5F000F00F00A9E70014014019
:103230000010014090F83910212901D00220704778
:103240008168B1F5805F016A0BD04A1C0262026896
:1032500009785160C18C491E0904090CC1840ED043
:1032600017E009880268C1F308015160016900296B
:10327000016A02D0491C0162ECE7891CFBE7016886
:10328000CA6822F08002CA600068C16841F040014B
:10329000C16000207047000010B5044802F044F9F6
:1032A000BDE810400148FFF77FB800004C03002044
:1032B0000148FFF779B800008C030020FEE7FEE725
:1032C00003B401984100009850EAC12018BF0420BF
:1032D0004A0D18BF40F0010040F2FF72B2EB515F9F
:1032E00008BF40F00200012808BF052002B0704767
:1032F00070B5C1482DED020B2DED0E8B82B0119DE6
:1033000025F000449FEDBEDB9FEDBFEB84423EDB2A
:10331000A4F140511098A1F17F6108430FD0BC483F
:10332000844202DC28D1109830B39DED100B02B01E
:10333000BDEC0E8B02B0BDE8704000F0B0BC9DED5E
:10334000100B53EC1D2B51EC100BFCF7FEFF9DED09
:10335000100B41EC180B53EC1E2B51EC100BFCF72F
:10336000F4FF53EC182BFDF76EF941EC100B02B093
:10337000BDEC0E8B02B070BD012000F0D5FC02B098
:10338000BDEC0E8B02B0BDE8704000F09DBCA148C2
:103390009FEDA18B844256DA9DED100BB4F1795F5D
:1033A0000ADA51EC100BFFF78BFF042808BF00F07E
:1033B0009BFC9DED100BDAE753EC102B51EC100B3E
:1033C000FCF7C3FF41EC190B95480621B0EE490A02
:1033D000F0EE690A784400F0E6FB53EC192B51EC4F
:1033E000100BFCF7B2FF41EC1A0B8E48B0EE490A05
:1033F000F0EE690A0421784400F0D5FB53EC192B58
:1034000051EC100BFCF7A1FF53EC182BFDF71BF947
:1034100041EC100B51EC1A0B53EC102BFDF7BAF9E1
:10342000CDE900019DED000B53EC102B9DED100B31
:1034300051EC100BFCF789FF9DED101B53EC112B89
:10344000FDF701F9D2E09DED100B51EC100B00F0EF
:1034500089FD53EC182BFDF79AF99FED730BCDE91D
:10346000000153EC102B9DED000B51EC100BFCF701
:103470006CFF41EC190B6E480621B0EE490AF0EEE4
:10348000690A784400F08FFB53EC192B51EC100BB8
:10349000FCF75BFF41EC1B0B6648B0EE490AF0EE0F
:1034A000690A0421784400F07EFB53EC192B51EC9F
:1034B000100BFCF74AFF53EC182BFDF7C4F841EC56
:1034C0001C0B51EC190B01F0F7FF41EC180B5A489B
:1034D0009FED5BABA04222DC53EC1C2B51EC1B0B91
:1034E000FDF758F9CDE900019DED000B51EC180BEB
:1034F00053EC102BFCF729FF53EC182BFDF7A3F826
:1035000053EC1A2BFCF721FF53EC1D2BFDF73CF974
:1035100053EC1E2BFDF73BF941EC100B5FE08DEDFA
:10352000008B002000909DED000B51EC180B53EC2C
:10353000102BFDF788F89DED000B41EC1E0B53ECB2
:10354000102B51EC100BFCF700FF53EC192BFDF77F
:103550001EF953EC1E2BFDF71DF941EC190B53EC32
:103560001C2B51EC1B0BFDF715F941EC1B0B53EC1D
:103570001A2B51EC190BFCF7E8FE53EC1D2BFDF751
:1035800006F941EC190B53EC1A2B51EC180BFCF714
:10359000DCFE53EC1B2BFCF7D8FE53EC192BFDF78C
:1035A000F3F89DED000B41EC180B53EC1A2B51EC8A
:1035B000100BFCF7CAFE9FED249B53EC192BFDF773
:1035C000E6F841EC100B51EC180B53EC102BFDF707
:1035D000DBF853EC192BFDF7DAF841EC100B002D5A
:1035E0003FF7C5AE51EC100B81F0004141EC100BE0
:1035F000BDE60000000000000000F03F00000000F9
:10360000075C143326A6913C182D4454FB21F93F46
:103610000000F07F0000E03F000000000000F03FED
:10362000A82C0000B62C0000000000000000E03FC5
:10363000FA2B0000082C00003333EF3F000000009D
:103640000000000000000040182D4454FB21E93F19
:1036500070B59B482DED020B2DED068B079D25F0D7
:103660000044A04218DC9748844202DC0AD1069844
:1036700040B19DED060BBDEC068B02B0BDE870407D
:1036800000F00DBB002DCCBF9FED8F0B9FED900B7D
:10369000BDEC068B02B070BD8F48A04215DD8F488F
:1036A000A042D8BF4FF0FF3458DD9DED060B51EC22
:1036B000100BFFF705FE042808BF00F015FB9DED79
:1036C000060BBDEC068B02B070BD9DED060B51ECF8
:1036D000100B00F047FCCDE9060181489FED828B7D
:1036E000A0423CDD8248A0421FDD00249FED82AB5A
:1036F0009DED060B53EC1A2B51EC100BFCF7A3FFBE
:103700009DED060B41EC190B53EC1A2B51EC100BF1
:10371000FCF71BFE53EC182BFDF736F853EC192B76
:10372000FDF738F8CDE9060149E09DED060B0124CF
:1037300053EC182B51EC100BFCF785FF9DED060B9D
:1037400041EC190B53EC182B51EC100BFDF71CF846
:1037500053EC192BFDF71EF8CDE906012FE0684860
:10376000A0421FDD02249FED689B9DED060B53ECEC
:10377000192B51EC100BFCF7E8FD53EC182BFCF760
:1037800062FF9DED060B41EC180B53EC192B51EC2D
:10379000100BFCF7F9FF53EC182BFCF7FBFFCDE9FE
:1037A00006010CE09DED060B032453EC102B9FED5E
:1037B000580B51EC100BFCF7EDFFCDE906019DED28
:1037C000060B53EC102B51EC100BFCF7BEFD41EC3B
:1037D000180B53EC182BFCF7B8FD41EC190B4E48B5
:1037E0000621B0EE490AF0EE690A784400F0DBF9F0
:1037F00053EC182B51EC100BFCF7A7FD41EC180B08
:103800004648B0EE490AF0EE690A0521784400F016
:10381000CAF953EC192B51EC100BFCF796FD41EC57
:10382000100B51EC180B53EC102B002C0EDAFCF79C
:103830000AFF9DED061B53EC112BFCF786FD9DED59
:10384000061B53EC112BFCF7A2FF35E0FCF7FBFE47
:103850009DED061B53EC112BFCF777FD41EC100B93
:103860002F48784400EBC40090ED001B51EC100B86
:1038700053EC112BFCF788FF9DED061B53EC112B2D
:10388000FCF782FF41EC100B2648784400EBC400A3
:1038900090ED001B51EC100B53EC112BFCF777FF54
:1038A00041EC100B002DA2BFBDEC068B02B070BD29
:1038B00051EC100B81F0004141EC100B01E70000CE
:1038C000000010440000F07F182D4454FB21F93F04
:1038D000182D4454FB21F9BF0000DC3F0000203EBE
:1038E0000000F33F00000000000000000000F03F77
:1038F0000000E63F00000000000000000000004063
:103900000080034000000000000000000000F83FBD
:10391000000000000000F0BF4A290000002900005C
:103920008A2800004228000070B56B4E2DED040B74
:103930002DED028B82B0DDF81CC0DDE905235C4271
:103940002CF000411C4341EAD474049D22F0004055
:10395000B44205D86C422C4340EAD474B4420BD92B
:103960009DED061B9DED040B02B0BDEC028B04B077
:10397000BDE8704000F09DB9ACF14054A4F17F6403
:103980001C430BD0022404EAAC7444EAD27405430D
:103990009FED538B9FED542B07D015E09DED040B4D
:1039A00051EC100B00F0C6F942E0002C11BF012CC5
:1039B0009DED040B02B0BDEC028B04BF04B070BDE2
:1039C000022C38D0032C3BD00B439FED491B9FEDBD
:1039D0004A0B0AD0B14218D1B04209D121F080413E
:1039E00020F08040079105900FE0002A15DA10E0E2
:1039F000434B7B44002C08BF93ED000B0DD0012CF2
:103A000010D0022C17D0032C1AD0B0421DD1002A9E
:103A100003DAB0EE410AF0EE610A02B0BDEC028BAF
:103A200004B070BD93ED000B51EC100B81F0004120
:103A300041EC100BF1E7B0EE480AF0EE680AECE753
:103A4000B0EE420AF0EE620AE7E7401A00153C28A1
:103A5000C8BF8DED000B19DCBCF1000FBEBF10F12B
:103A60003C0F9FED290B8DED000B0FDB9DED060B41
:103A700053EC102B9DED040B51EC100BFCF78AFE60
:103A800000F070FA00F056F9CDE90001002C08BFF3
:103A90009DED000BC1D0012C10D0022C9FED1C0B12
:103AA00053EC102B9DED000B51EC100B0DD0FCF7DF
:103AB0006BFE53EC182BFCF767FEB9E7019880F01A
:103AC000004001909DED000BA7E7FCF75DFE53EC75
:103AD000182BFCF75CFEABE70000F07F0000000055
:103AE000182D4454FB210940182D4454FB2109C0D2
:103AF000182D4454FB21F9BF182D4454FB21F93FE4
:103B0000722700000000000000000000000000001C
:103B1000075C143326A6A13C2DED020B019820F082
:103B2000004001909DED000B02B0704700B52DEDF7
:103B3000048BB0EE409AF0EE609A83B051EC190B12
:103B4000FCF797FE41EC180B18EE100A18EE901ACD
:103B50008DED008B002818BF0120084320F00040A5
:103B6000C0F17F6000F1E040C00F14D019EE101AD0
:103B700019EE900A8DED009B002918BF0121084322
:103B800020F00040C0F17F6000F1E040C00F04BFB2
:103B9000012000F0C9F8B0EE480A03B0F0EE680A60
:103BA000BDEC048B00BD70B504462DED028B4D1E9F
:103BB00000EBC500B0EE408AF0EE608A90ED000B9D
:103BC00035F0060017D053EC182B51EC100BFCF716
:103BD000BCFB41EC100B6D1E04EBC50090ED001B0F
:103BE00051EC100B53EC112BFCF72DFD41EC100B9D
:103BF00035F00600E7D1022D36D0042D1CD0062D5D
:103C00001CBFBDEC028B70BD53EC182B51EC100B9C
:103C1000FCF79BFB94ED0A1B53EC112BFCF713FDF7
:103C200053EC182BFCF791FB94ED081B53EC112B74
:103C3000FCF709FD41EC100B53EC182B51EC100B69
:103C4000FCF783FB94ED061B53EC112BFCF7FBFCFC
:103C500053EC182BFCF779FB94ED040B53EC102B71
:103C6000FCF7F1FC41EC100B53EC182B51EC100B52
:103C7000FCF76BFB94ED021B53EC112BFCF7E3FC00
:103C800053EC182BFCF761FB94ED001B53EC112B4C
:103C9000FCF7D9FCBDEC028B41EC100B70BD10B5EC
:103CA00053EC102B51EC100BFCF7CDFC41EC100B3E
:103CB00010BD10B553EC112B51EC100BFCF7C3FCED
:103CC00041EC100B10BD00009FED050B10B553EC3F
:103CD000102B51EC100BFCF75DFD41EC100B10BDEF
:103CE00000000000000000009FED050B10B553EC34
:103CF000102B51EC100BFCF728FB41EC100B10BD06
:103D0000000000000000001002E008C8121F08C1F7
:103D1000002AFAD170477047002001E001C1121F4C
:103D2000002AFBD17047000001490860704700007D
:103D3000F400002010B541EC100BFFF789FC51ECAA
:103D4000100B10BDB0EE081A074830EE410A90ED96
:103D5000001A21EE000A90ED011A00EE810ABDEE74
:103D6000C00A10EE100A7047EC00002010B58AB0AF
:103D7000002101220446CDE906120E200391164BC4
:103D8000CDE9082005910091019102919C4200D15A
:103D9000049112498C4201D1CDE9042069462046A4
:103DA000FCF7CCFE18B13A210DA0FFF788FA2046A7
:103DB000FDF732FA18B1412109A0FFF780FA02217C
:103DC0002046FCF742FE18B1482105A0FFF777FA1C
:103DD0000AB0002010BD0000680200209002002000
:103DE0002E2E5C6273705C63616E5C6273705F63E5
:103DF000616E2E63000000002DE9F04124212DEDBD
:103E0000048B2448FCF796FA234D9FED248ADFEDBE
:103E1000248A9FED249A00244FF4FA7642F2107718
:103E200004EB440000EB041005EB8000B0EE481AF0
:103E3000F0EE680AB0EE490A33463A460321FEF72F
:103E4000D9FD641C042CEBDB4FF49674DFED168A6D
:103E5000F0EE480AB2EE0C0AB0EE681A322322469F
:103E600003211248FEF7C6FDB0EE681AF0EE480ACC
:103E7000B2EE0C0A3223224603210D48FEF7BAFDAA
:103E8000BDEC048B01223C21BDE8F0410948FDF75F
:103E90006DBC00001C4100204041002000000000DB
:103EA000CDCC4C3D0000A4410000484270420020AF
:103EB000BC420020001C024038B50F4800210068B9
:103EC000026842680092C26842F01002C2600A4C66
:103ED0000A4A94F83A0020280DD13223A262A38521
:103EE000E1632168606B091DFDF716FB20684169DD
:103EF00041F04001416138BD4C030020E801002041
:103F000010B5028842800B885CBA0480A21A8368CC
:103F1000B2F5805F04DD5B1EA2F50052836006E00F
:103F200012F5805F03DA5B1C02F500528360C26108
:103F300004EB4332838ADFED0A0AD21A00EE102A1C
:103F4000C260B8EEC00A80EE201ABDEEC10A80ED54
:103F5000040A4A8852BA8280898849BAC18010BD51
:103F6000610BB64182B0CDE9000121F00040019023
:103F70009DED000B02B051EC100B7047098849BA57
:103F8000018081827047000010B5FF4CFF482DED85
:103F9000108B94ED010AD4ED010A20EE20FA94ED85
:103FA000010AD4ED020A20EE20CA94ED010AD4EDF4
:103FB000030A60EE20BA94ED010AD4ED040A60EE23
:103FC00020CA94ED020AD4ED020A20EE20DA94ED24
:103FD000020AD4ED030A20EE209A94ED020AD4EDF1
:103FE000040A20EE20BA94ED030AD4ED030A60EE31
:103FF00020AA94ED030AD4ED040A20EE20AA94ED41
:10400000040AD4ED040A60EE209A90ED040A84EDCF
:10401000080A90ED050A84ED090A90ED060A84ED80
:104020000A0AB0F9001000EE101AB8EEC00A84EDCA
:104030000B0AB0F9021000EE101AB8EEC00A84EDB7
:104040000C0AB0F9041000EE101AB8EEC00A84EDA4
:104050000D0AB0F9061000EE101AB8EEC00A84ED91
:104060000E0AB0F9081000EE101AB8EEC00A84ED7E
:104070000F0AB0F90A0000EE100AB8EEC00A84ED8B
:10408000100AFDF779FBA064A06C616C401A00EE89
:10409000100AB8EE400ADFEDBE0AA06CC0EE208A1E
:1040A000606494ED0B0AD4ED0B0A94ED0C1A20EE2B
:1040B000200AD4ED0C0A00EE810AD4ED0D0A94ED2D
:1040C0000D1A00EE810A00F05BFBD4ED0B0A60EEE6
:1040D000800AC4ED0B0AD4ED0C0A60EE800AC4ED30
:1040E0000C0AD4ED0D0A20EE800A84ED0D0A94ED41
:1040F0000E0AD4ED0E0A94ED0F1A20EE200AD4ED2C
:104100000F0A00EE810AD4ED100A94ED101A00EEA9
:10411000810A00F035FBD4ED0E0AB6EE001AB0EEBF
:10412000008A60EE800A39EE6CEA7BEE2B1AC4ED51
:104130000E0AD4ED0F0A60EE800AC4ED0F0AD4ED2A
:10414000100A20EE800A71EE6A0A31EE4D1A84EDF3
:10415000100A94ED0E0A70EEE9EA31EE692A20EEBB
:10416000080A71EE6ADA60EE2E0A94ED0F0A20EE6C
:10417000080A40EE0E0A94ED100A20EE080A40EEFE
:10418000210A94ED0E0A79EE2C1A7BEE6BCA20EE12
:10419000080A60EEA00A20EE210AD4ED0F1A61EEA3
:1041A000881A01EE820AD4ED101A3AEE4C2A61EE1A
:1041B000881A01EE820AD4ED0E1A3AEE0C2A61EE4C
:1041C000881A40EE000A21EEAC9AD4ED0F1A10EED8
:1041D000900A61EE881A01EE829AD4ED101A61EE0F
:1041E000881A01EEAD9AFCF733F941EC100BFFF79A
:1041F0009DFC51EC100BFCF757F900EE900A7CEE99
:104200000A2A3FEE4D1A60EE880A69EE083A22EE5D
:10421000880A31EE6A1A60EE8E1A94ED104A2CEE7E
:10422000882A31EE293A43EEA21A7BEE8B2A20EE41
:10423000AE1A60EEA22AD4ED0C0A03EEAC1A43EEDD
:10424000AD2A60EE830AD4ED0D3A43EEC00AD4EDF8
:104250000F3A63EEA23A44EE613A94ED0B4A70EEE7
:10426000A30AD4ED0D3A63EE823AF5EEC00A44EEAD
:10427000433A94ED103A94ED0E4A23EE013A04EEDF
:10428000623A73EE832A94ED0B3A23EE000A94ED22
:104290000C3A03EE420A94ED0E2A62EE211A94EDD6
:1042A0000F2A42EE411A30EE210AF1EE10FA41D007
:1042B000F5EEC02AF1EE10FA3CD0B5EEC00AF1EEF0
:1042C00010FA37D0D4ED051A9FED321A20EE812A6C
:1042D00042EE281A22EE812AC4ED051AD4ED061A00
:1042E00042EE281AC4ED061A60EE011A94ED071A80
:1042F00001EEA81A84ED071A94ED081A00EE881A48
:10430000D4ED050A71EE200AC4ED080AD4ED090ABD
:1043100094ED061A42EE880A70EE810AC4ED090A8D
:10432000D4ED0A0A40EE080A94ED070A30EE800A3E
:1043300084ED0A0A94ED020AD4ED080A94ED091AF4
:1043400094ED013A20EEC00AD4ED030A00EEC10A52
:10435000D4ED040A94ED0A1A00EEC10AD4ED080A5D
:1043600094ED0A1A00EE283A94ED010A20EE200A94
:10437000D4ED030A00EE810AD4ED040A94ED091A83
:1043800000EEC10A08E000000C000020040200203A
:104390000000FA440AD7233CD4ED021AD4ED090AEE
:1043A00094ED0A1A40EE281A94ED010A94ED032ABE
:1043B000D4ED042A20EE200AD4ED020A00EEC10A50
:1043C000D4ED040A94ED081A00EE810AD4ED0A0A2D
:1043D00094ED091A00EE282A94ED010A20EE200A35
:1043E000D4ED020A00EE810AD4ED030A94ED081A16
:1043F00000EEC10A40EE282A23EE030A01EEA10ACC
:1044000002EE020A02EEA20A00F0BAF963EE000A16
:10441000C4ED010A61EE800AC4ED020A62EE000AF0
:1044200022EE800AC4ED030A84ED040ABDEC108B71
:1044300010BD000070B5564C2DED068BF8EE008ACD
:10444000B0EE008AB7EE00AA94ED030AD4ED030A99
:1044500094ED041A20EE280A20EE200AD4ED040A76
:1044600060EE880A00EEC10A30EE0A0A10EE100A69
:10447000FBF7EEFF94ED020AD4ED030A94ED041A63
:1044800020EE080A41EC190B20EE200AD4ED010AB7
:1044900060EE880A00EE810A10EE100AFBF7D8FFE2
:1044A00041EC100BB0EE491AF0EE691AFFF73CFA36
:1044B0009FED389B51EC100B53EC192BFBF745FF8C
:1044C000FBF7F2FF354D286394ED020AD4ED040AA0
:1044D00094ED031A20EE280A20EE200AD4ED010AFA
:1044E00060EE880A00EE810A10EE100AFBF7B0FFBA
:1044F00041EC100BFEF7FCFE53EC192B51EC100BAA
:10450000FBF723FFFBF7D0FFE86294ED020AD4ED3E
:10451000020A94ED031A20EE280A20EE200AD4EDB8
:10452000030A60EE880A00EEC10A30EE0A0A10EEB5
:10453000100AFBF78DFF94ED030AD4ED040A94ED05
:10454000021A20EE080A41EC190B20EE200AD4EDE5
:10455000010A60EE880A00EE810A10EE100AFBF7ED
:1045600077FF41EC100BB0EE491AF0EE691AFFF735
:10457000DBF99FED0B1B51EC100B53EC112BFBF7F0
:10458000E4FEFBF791FFA862BDEC068B70BD000056
:104590000C0000206666666666A64CC00402002019
:1045A0006666666666A64C40EFF30580002800D07C
:1045B0000120704710B559482DED0A8BB0F906104F
:1045C000B0F908009FED569BDFED57BA574C9FEDB1
:1045D000588A9FED58BADFED58AA9FED58AADFED33
:1045E000588A00294EDA9FED57CA00282ADA91FB33
:1045F000F0F0FBF71CFF41EC100BFFF78DFA53ECCA
:10460000192B51EC100BFBF737FF0AD8C4ED01BA98
:1046100084ED028A9FED4C0A84ED030A9FED4B0A5C
:104620000BE09FED4B0A84ED010A9FED4A0A84EDF1
:10463000020A84ED03BA9FED480A84ED040ABDEC3A
:104640000A8B10BDFBDD91FBF0F0FBF7F0FE41ECB7
:10465000100BFFF761FA53EC192B51EC100BFBF721
:104660000BFF84ED01CA06D884ED028AC4ED03AACB
:104670009FED3A0AE1E784ED02AAC4ED038A9FEDBB
:10468000380ADAE7DBDD00289FED36CA22DD91FB30
:10469000F0F0FBF7CCFE41EC100BFFF73DFA53ECCA
:1046A000192B51EC100BFBF7E7FE0AD89FED2E0AF1
:1046B00084ED010AC4ED02AA84ED038AC4ED04BAB4
:1046C000BDE79FED2A0A84ED010AC4ED028A84ED5C
:1046D00003AAB2E7B3DA91FBF0F0FBF7A8FE41ECD6
:1046E000100BFFF719FA53EC192B51EC100BFBF7D9
:1046F000C3FE84ED01CA08D89FED1D0A84ED020AAD
:1047000084ED038A9FED1B0A97E79FED1B0A84ED5A
:1047100002BA84ED030A9FED190A8EE70402002015
:10472000000000000000F03F0AD7A3BB0C000020EF
:10473000A8C64BBEE17A543F355E7ABF68910DBF83
:10474000E17A54BF0AD7A33BBE9F7A3F4ED111BC3A
:104750006F1203BC7B140EBF6F1203BBA69B443CBD
:1047600099BB16BB0AD7233B52499D3A99BB163BCE
:10477000355E7A3F6F12033C295C0FBFBC74933BDC
:1047800010EE100AF6EE000A074960EE200AA1EBCF
:10479000600000EE100A20EE801AF7EE080A41EEE3
:1047A000400A20EE800A7047DF59375F0622014633
:1047B000492000F09BBA10B530216A2000F0CEFAF3
:1047C0000A20FCF7CDFE0D21242000F0C7FA0A20B4
:1047D000FCF7C6FE0E21282000F0C0FA0A20FCF7E4
:1047E000BFFE8E21312000F0B9FA0A20FCF7B8FE96
:1047F00001210B2000F07BF80A20FCF7B1FE00201D
:1048000000F059F8102801D0012010BD01210B2023
:1048100000F06DF80A20FCF7A3FE00210A2000F04A
:1048200066F80A2000F047F808B1022010BD0A20FF
:10483000FCF796FE00210B2000F059F80B2000F049
:104840003AF808B1032010BD0A20FCF789FE2421A4
:10485000412000F04CF8412000F02DF8242801D030
:10486000042010BD0A20FCF77BFEC021422000F08E
:104870003EF8422000F01FF8C02801D0052010BDEE
:104880000A20FCF76DFE00212A2000F067FA0A20BA
:10489000FCF766FE0021342000F060FA0A20FCF7E5
:1048A0005FFE062203210E2000F05EF96420FCF773
:1048B00057FE002010BD10B50146322000F04EFA20
:1048C0000A20FCF74DFE8021342000F047FA0A2030
:1048D000FCF746FE352000F0E1F9044600213420C3
:1048E00000F03CFA0A20FCF73BFE204610BD70B5F4
:1048F0000D46044600212A2000F030FA0220FCF781
:104900002FFE2146292000F029FA0220FCF728FE7C
:104910002946642000F022FA0220FCF721FE8121C2
:104920002A2000F01BFABDE870400A20FCF718BEF0
:104930002DE9F041074600244FF48045104E4FF416
:10494000FA7811E0002229463046FCF70FFF404676
:1049500000F02EFA012229463046FCF707FF4046B8
:1049600000F026FA641CE4B2BC42EBD301222946D3
:104970003046FCF7FBFEBDE8F041C82000F018BA55
:104980000014024010B50122D1020548FCF7EEFEEA
:104990000122BDE8104091030248FCF7E7BE000089
:1049A0000010024000140240FCF7F4FEFEF7FCF891
:1049B000FDF7C4FEFDF786FEFDF7BAFFFDF7E2FF47
:1049C000FDF728FEFDF752FEFDF780FFFDF750FFD3
:1049D000FFF7D8FFFFF770FA0548FFF7C7F905485A
:1049E000FFF7C4F9FDF784FE00F0F0F9FEE70000E0
:1049F000680200209002002001460020842900D097
:104A0000C81C704730B585B06420FCF7A9FD75203F
:104A100000F044F9124900241422887011496846B4
:104A2000FBF76FFC4FEA0D0505EB4400417815F8E4
:104A3000140000F093F90120FCF792FD641CE4B22D
:104A40000A2CF1D3032000F084F9022000F07CF955
:104A5000FFF7B1FE00F0D0F805B0002030BD000037
:104A60000C0000202460000810B50E2239493B20BC
:104A700000F03CF9374800F10E04018849BA218062
:104A8000418849BA6180818849BAA180C18849BA00
:104A9000A1810189628B49BA891AE1814189A28B7E
:104AA00049BA891A21828089E18B40BA401A608212
:104AB0002948FFF77BFE2849A4F142004C399FEDBD
:104AC000271ACA6C8264B1F85010A0F84C10D0F8C4
:104AD00042100160D0F846104160D0F84A10816061
:104AE000B4F90C0000EE100AA4F14200F8EEC00A7E
:104AF00080EE810AF3EE050A30EE200A80ED030A0B
:104B0000B4F90E1000EE101AF8EEC00A9FED140A68
:104B100080EE801ADFED130AC1EE201AC0ED041AF0
:104B2000B4F9101001EE101AF8EEC11A81EE801AD5
:104B3000C1EE201AC0ED051AB4F9121001EE101AD8
:104B4000F8EEC11A81EE801A81EE200A80ED060A85
:104B500010BD000038020020580000205CEFA64382
:104B60006F1283413333654270B50E4604460146E9
:104B70001546282000F0F2F80220FCF7F1FC0A218B
:104B8000292000F0EBF80220FCF7EAFC0121642068
:104B900000F0E4F80220FCF7E3FC44F0800125205B
:104BA00000F0DCF80220FCF7DBFC3146262000F0A8
:104BB000D5F80220FCF7D4FC0321342000F0CEF815
:104BC0000220FCF7CDFC0321672000F0C7F802208B
:104BD000FCF7C6FC81212A2000F0C0F80620FCF773
:104BE000BFFC45F08001272000F0B8F8BDE8704018
:104BF0000220FCF7B5BC00002DE9F041264E00274D
:104C000006F10E044FF496750E2223493B2000F066
:104C10006DF83188A08A49BA0844A0827188E08A78
:104C200049BA0844E082B188208B49BA08442083FD
:104C30003189608B49BA084460837189A08B49BA75
:104C40000844A083B189E08B49BA0844E083052079
:104C5000FCF786FC7F1CAF42D6DBB4F9140090FB56
:104C6000F5F0A082B4F9160090FBF5F0E082B4F9FB
:104C7000180090FBF5F02083B4F91A0090FBF5F0D2
:104C800000B2608390FBF5F0A083B4F91E0090FBA6
:104C9000F5F0E083BDE8F08138020020F8B5104E51
:104CA0000446002240213046FCF760FD44F08000BD
:104CB0000C4C3725621C20700123511E0A480095B8
:104CC000FDF7B2F9621C0123511E07480095FDF75C
:104CD000ABF9012240213046FCF748FD6078F8BD71
:104CE000001402400C000020B8020020F8B5134F59
:104CF00015460E460446002240213846FCF736FD94
:104D00000F4944F08000372408705231A1F151025C
:104D10000870012352390B480094FDF785F90849C2
:104D20002B463246523107480094FDF77DF90122A7
:104D300040213846FCF71AFD0020F8BD001402405F
:104D40000C000020B8020020C006010E1C2000F05C
:104D500005B8C006010E1B20AFF30080F8B5114F57
:104D60000E460446002240213846FCF7FFFC04F0C2
:104D70007F000D4C3725621C20700123511E0B480B
:104D80000095FDF751F92670621C0123511E07485A
:104D90000095FDF749F9012240213846FCF7E6FC71
:104DA0000020F8BD001402400C000020B8020020D2
:104DB00010B500B9012000F0C7FC002010BD10B5EF
:104DC00001B9012100F0E6FC002010BD10B500F093
:104DD00057FD002010BD10B5FFF7E6FB18B1BDE888
:104DE000104000F0CBBFBDE8104000F0C1BF10B5CF
:104DF000012901D0002010BD03220021012000F074
:104E00002FFE040004D000231A46194600F090FE3D
:104E1000204610BD10B500F09DFF012803D0BDE86D
:104E2000104000F007BE10BD3EB504460D46B0F977
:104E30000800FFF7E1FD02A9CDE90001208A2B4619
:104E400082B2D4E9001000F059FF012801D00020FF
:104E50003EBD02983EBD00F1380C8CE80E0080EC9F
:104E6000030A704780EC030A9FED050A80ED080AEB
:104E700080ED090A80ED0A0A80ED0B0A70470000F8
:104E8000000000002DE9F041184C0F460546E66889
:104E90002068001D00F078FB38B9206890F82C10CD
:104EA00001208840216981432161681C07D137B105
:104EB0002168BDE8F0410E48091D00F09DBB206847
:104EC0003544B5424560216805D2A06BBDE8F0418C
:104ED000091D00F079BB606B091D00F075FBA06A2D
:104EE000854200D2A562BDE8F0810000B00000203C
:104EF000084100202DE9F041054600F089FB2E4CC9
:104F0000A068401CA06020682C4F10B1606940B3BD
:104F10002DE02560A068012829D1002606EB860037
:104F200007EB800000F042FB761C072EF6D32348E7
:104F30008C3000F03BFB2148A03000F037FB1F48CD
:104F4000B43000F033FB1D48C83000F02FFB1B4885
:104F5000DC3000F02BFB19488C3060631430A06308
:104F600005E02068E96AC06A884200D82560606A66
:104F7000401C6062E96A0120226988401043206178
:104F800001EB810007EB8000291D00F035FB00F0EC
:104F90005FFB606900280CD02068E96AC06A88421B
:104FA00007D207494FF080500860BFF34F8FBFF31F
:104FB0006F8FBDE8F0810000B00000202C40002081
:104FC00004ED00E070B5114E114C17E000F08CFCC0
:104FD0003068B8B100F0C4FF00F01AFBF068C56893
:104FE000281D00F0D1FAA068401EA0606068401E35
:104FF000606000F02DFB284600F042F86068002851
:10500000E4D170BD00F0ACFFF8E70000F4400020F0
:10501000B00000202DE9F041856B174604460026BC
:10502000026C82B1C7B1E068FBF76BF9E168206CF4
:10503000091AE1602268914202D26168081AE060B0
:10504000022F16D017E02068A8B9606800F002FFB0
:105050000646002060600EE0A068FBF752F9216C64
:10506000A0680844A0606168884204D32068A060FA
:1050700001E005B16D1E6D1CA5633046BDE8F081F1
:1050800010B50446006B00F0F7FA2046BDE810406A
:1050900000F0F2BA10484FF47051420706D0C01D1C
:1050A0000D4920F00700411AC1F570510B4A002349
:1050B0000144C2E900030839103A21F007011160E8
:1050C0004B600B600B1AC0E9001393604FF0004077
:1050D0005360D060704700002C0400209C0000202A
:1050E000074C4FF08056074DFFF76CFF20680128F2
:1050F000FAD92E60BFF34F8FBFF36F8FF4E7000034
:105100002C40002004ED00E02DE9F0479A46DDE94F
:10511000098481466FF00303206B03EB8202104485
:10512000089D20F00706700707D0502080F31188F3
:10513000BFF34F8FBFF36F8FFEE723180A5C83F82E
:1051400034200A5C12B1401C1028F6D3002784F8E2
:105150004370072D00D30625E562C4E91157201DD1
:1051600000F02FFA04F1180000F02BFA2461C5F1C9
:1051700007006462A061E76484F8507052464946B3
:10518000304600F0F5F82060B8F1000F01D0C8F803
:105190000040BDE8F087000030B5114900E011463D
:1051A0000A688242FBD34B685C18844203D1406892
:1051B00018444860084643681C18944209D1084CBA
:1051C000103C2468A24209D052681A4442600A681E
:1051D00012680260814200D0086030BD0460F9E7C7
:1051E0009C0000200648416B096829B1416BC968E1
:1051F000C9684968816270474FF0FF31FAE70000E3
:10520000B000002008484068401C4FF0500080F378
:10521000118804D0BFF34F8FBFF36F8FFEE7BFF34A
:105220004F8FBFF36F8FFEE7A40000202DE9F04100
:10523000044600F0EDF994F9455004F1240609E024
:10524000606A48B1304600F051FE08B100F0E8FA5B
:105250006D1E6DB2002DF3DC4FF0FF3684F8456013
:1052600000F0F6F900F0D4F994F9445004F1100775
:1052700009E0206948B1384600F038FE08B100F076
:10528000CFFA6D1E6DB2002DF3DC84F84460BDE8EA
:10529000F04100F0DDB900002DE9F041054600279E
:1052A00000F022FB314E306808B9FFF7F3FEF068DA
:1052B00005424BD1C5B3083568070ED005F007008D
:1052C000C0F108000544680707D0502080F311881A
:1052D000BFF34F8FBFF36F8FFEE72DB3706885422A
:1052E00034D82248103001460C6801E020460C46B4
:1052F0006168A94202D221680029F7D131688C4245
:1053000024D007682168016060680837411B1029B4
:105310000FD96019420708D0502080F31188BFF3DD
:105320004F8FBFF36F8FFEE710E041606560FFF7BE
:1053300033FF61687068401A7060B268904200D2B2
:10534000B060F06801430020C4E9000100F008FEED
:10535000780707D0502080F31188BFF34F8FBFF339
:105360006F8FFEE73846BDE8F08100008C0000201A
:1053700010B5031F4FF080741C601B1F21F001014A
:105380001960191F044B0B6014390A60091F6FF074
:10539000020244380A6010BD0552000870B50A8840
:1053A000C2F30A02A2F5806202804B788C78DB0897
:1053B00043EA4413C3F30A05A5F5806545808B785D
:1053C000CC789B0943EA84030C7902F5257243EA01
:1053D0008423C3F30A04A4F5806484800B794E7996
:1053E0005B0843EAC613C3F30A03A3F58063C380D3
:1053F0004E79B60906724979C1F3011141724FF431
:10540000A5618A420BD805F525758D4207D804F5AC
:1054100025748C4203D803F525738B4203D90021F0
:1054200001604160018170BD00B589B04FF4007129
:105430000291002108220491CDE905128DF81C107B
:10544000018808AB090A8DF8001001788DF8011069
:1054500041886A46090A8DF8021081788DF8031098
:105460008188090A8DF8041001798DF80510C1882A
:10547000090A8DF8061080798DF8070002A90748FF
:10548000FBF7F7FA18B1B92105A0FDF718FF03489B
:10549000FBF75DFC0328FAD109B000BD68020020CB
:1054A0002E2E5C6273705C63616E5C6273705F630E
:1054B000616E2E630000000000B52DED048B83B0FB
:1054C00041EC190BFBF7D5F941EC180B18EE100A5B
:1054D00018EE901A8DED008B002818BF01200843AC
:1054E00020F00040C0F17F6000F1E040C00F14D018
:1054F00019EE101A19EE900A8DED009B002918BFC5
:105500000121084320F00040C0F17F6000F1E0403D
:10551000C00F04BF0120FEF707FC51EC180B03B0CD
:10552000BDEC048B00BD000018B501680A68D20606
:1055300024D5CA68D20621D5044608684868009078
:105540000F4884421AD1606B0068016821F00101A4
:105550000160606B0068406880B2202804D109496E
:1055600001F11200FFF71AFF616B322009684860F1
:10557000606B0068016841F00101016018BD000026
:105580004C030020E8010020D0E9013201699A6053
:10559000D0E901235A604A68824201D182684A6098
:1055A000002202610868401E0860704700F108018F
:1055B0004FF0FF32C0E90112C160016100210160BA
:1055C000704700210161704730B50B685A1C02D04A
:1055D00000F1080202E0026904E0224654682568EE
:1055E0009D42FAD953684B6099608A6051600861A6
:1055F0000168491C016030BD42684A6093688B6055
:1056000093685960916008610168491C01607047A6
:10561000502080F31188BFF34F8FBFF36F8F0A497B
:105620004868401C486001280CD10848006810F008
:10563000FF0F07D0502080F31188BFF34F8FBFF3C7
:105640006F8FFEE770470000A400002004ED00E02B
:105650000849486828B1401E486001D180F311888C
:105660007047502080F31188BFF34F8FBFF36F8FC7
:10567000FEE70000A400002070B5002827D0144DDC
:10568000A0F108046168E868014207D1502080F366
:105690001188BFF34F8FBFF36F8FFEE722683AB1D7
:1056A000502080F31188BFF34F8FBFF36F8FFEE759
:1056B0008143616000F018F96068696808446860B7
:1056C0002046FFF769FDBDE8704000F049BC70BDA1
:1056D0008C00002006484FF47A710068B0FBF1F1AD
:1056E0004FF0E020491E4161072101617047000031
:1056F0008800002010B5FAF7BDFD114910280ED31F
:1057000000F1E02090F8F0030A78904207D2502090
:1057100080F31188BFF34F8FBFF36F8FFEE7094807
:105720000068896800F4E060884207D9502080F35F
:105730001188BFF34F8FBFF36F8FFEE710BD0000DE
:10574000A40000200CED00E010B5020014D00F48BA
:10575000006B38B1502080F31188BFF34F8FBFF337
:105760006F8FFEE700F0C0F800211046FFF78AFBBC
:1057700000F0F6FB002807D105494FF08050086083
:10578000BFF34F8FBFF36F8F10BD0000B00000203C
:1057900004ED00E070B50D4604000BD095B11E4A33
:1057A000106BB8B1502080F31188BFF34F8FBFF357
:1057B0006F8FFEE7502080F31188BFF34F8FBFF348
:1057C0006F8FFEE7502080F31188BFF34F8FBFF338
:1057D0006F8FFEE700F088F8D2682368591993426A
:1057E00004D98B420AD9914202D807E08B42FAD9F8
:1057F000881A21600021FFF745FB00E0216000F0DE
:10580000AFFB002807D105494FF080500860BFF377
:105810004F8FBFF36F8F70BDB000002004ED00E02C
:1058200001490120C8617047B000002010B50C4646
:1058300050B1094909681831FFF7C6FE2046BDE896
:1058400010400121FFF71EBB502080F31188BFF3E9
:105850004F8FBFF36F8FFEE7B000002028B10749DC
:105860000A6A0260C96841607047502080F311885D
:10587000BFF34F8FBFF36F8FFEE70000B000002033
:105880001CB515480024CDE900402346802213A111
:10589000144800F033FA012809D0401C1AD15020D6
:1058A00080F31188BFF34F8FBFF36F8FFEE7502057
:1058B00080F31188BFF34F8FBFF36F8F06484FF00F
:1058C000FF312C38816201214161C460BDE81C4078
:1058D00000F040B81CBD0000DC00002049444C45ED
:1058E00000000000E15000080248016B491C016300
:1058F00070470000B00000201448016B11B1012175
:10590000C16170470021C1610169B1FA81F1C1F142
:105910001F0101EB81020E4951F822306BB101EBFE
:10592000820101F108034A6852684A609A4201D133
:1059300052684A60D16801607047502080F3118836
:10594000BFF34F8FBFF36F8FFEE70000B000002062
:105950002C4000201CB532480168324A914207D1E0
:10596000502080F31188BFF34F8FBFF36F8FFEE796
:1059700000682C49491E884207D1502080F31188C5
:10598000BFF34F8FBFF36F8FFEE727490878019071
:10599000FF20087008788DF800009DF800009DF841
:1059A000002000F0F000904207D0502080F31188D2
:1059B000BFF34F8FBFF36F8FFEE79DF800001B4AC8
:1059C00000F0500010700720906005E09DF8003056
:1059D0005B008DF80030401E9DF800301B06F5D4AA
:1059E000000200F4E0609060019808700C482030DC
:1059F000016841F470010160016841F0704101608B
:105A0000FFF768FE00205060FAF7FAFB08480168CB
:105A100041F040410160FAF7E3FB00201CBD0000AB
:105A200000ED00E071C20F4100E400E0A40000209E
:105A300034EF00E010B5502080F31188BFF34F8F92
:105A4000BFF36F8F00F0A2F918B104494FF08050F6
:105A50000860002080F3118810BD000004ED00E014
:105A600070B50E46050013D0D6B105FB06F04830E0
:105A7000FFF712FC040009D004F1480120468EB162
:105A80000160C0E90F56012100F00EF8204670BDFC
:105A9000502080F31188BFF34F8FBFF36F8FFEE765
:105AA0000020E4E70060ECE770B50D46040025D067
:105AB000FFF7AEFDD4E90F20216802FB0011616001
:105AC0000021A1632168A1600A46D4E90F01401EAC
:105AD00000FB0121E16021464FF0FF3001F8440F47
